:020000040800F2
:10000000001A0020CD0C000895090008B90C000862
:10001000B90C0008B90C0008B90C00080000000079
:10002000000000000000000000000000B90D000802
:10003000B90C000800000000550D00086D200008F4
:100040003D0F00083D0F00083D0F00083D0F000860
:100050003D0F00083D0F00083D0F00083D0F000850
:100060003D0F00083D0F00083D0F00083D0F000840
:100070003D0F00083D0F00083D0F00083D0F000830
:100080003D0F00083D0F00083D0F00083D0F000820
:100090003D0F00083D0F00083D0F00083D0F000810
:1000A0003D0F00083D0F00083D0F00083D0F000800
:1000B0003D0F00083D0F00083D0F00083D0F0008F0
:1000C0003D0F00083D0F00083D0F00083D0F0008E0
:1000D0003D0F00083D0F00083D0F00083D0F0008D0
:1000E0003D0F00083D0F00083D0F00083D0F0008C0
:1000F0003D0F00083D0F00083D0F00083D0F0008B0
:100100003D0F00083D0F00083D0F00083D0F00089F
:100110003D0F00083D0F00083D0F00083D0F00088F
:100120003D0F00083D0F00083D0F00083D0F00087F
:100130003D0F00083D0F00083D0F00083D0F00086F
:100140003D0F00083D0F00083D0F00083D0F00085F
:100150003D0F00083D0F00083D0F00083D0F00084F
:100160003D0F00083D0F00083D0F00083D0F00083F
:100170003D0F00083D0F00083D0F00083D0F00082F
:100180003D0F00083D0F00083D0F00083D0F00081F
:100190003D0F00083D0F00083D0F00083D0F00080F
:1001A0003D0F00083D0F00083D0F00083D0F0008FF
:1001B0003D0F00083D0F00083D0F00083D0F0008EF
:1001C0003D0F00083D0F00083D0F00083D0F0008DF
:0801D0003D0F00083D0F00087F
:1001D80053B94AB9002908BF00281CBF4FF0FF31A6
:1001E8004FF0FF3000F00CB8ADF1080C6DE904CE0B
:1001F80000F012F8DDF804E0DDE9022304B07047EE
:10020800704700BF10F8012B11F8013B012A28BFE5
:100218009A42F7D0D01A70472DE9F04786468C46A7
:100228000846089E154674461946002B40F0C280C1
:100238008542B2FA82F245D94AB1C2F1200300FAE6
:1002480002FC2EFA03F3954043EA0C0C94404FEA63
:10025800154EA8B2BCFBFEF8230C0EFB18CC08FB0D
:1002680000F943EA0C43994528D9EB1808F1FF3700
:1002780004D2994502D9A8F102072B44A3EB09033C
:10028800A4B2B3FBFEFC0EFB1C330CFB00F044EAEB
:100298000344A04214D92C190CF1FF3304D2A04214
:1002A80002D9ACF102032C44241A43EA07401EB1D8
:1002B800D440002334607360BDE8F0874746DDE72B
:1002C8006346F1E792BB431B01214FEA154EAFB2DB
:1002D800B3FBFEFC200C0EFB1C330CFB07F840EABA
:1002E8000343984562D9EB180CF1FF3004D29845C6
:1002F80002D9ACF102002B44A3EB0803A4B2B3FB70
:10030800FEFC0EFB1C330CFB07F744EA0344A74230
:100318004ED92C190CF1FF3304D2A74202D9ACF103
:1003280002032C44E41B43EA0040C0E7C2F1200367
:1003380020FA03F1954090402EFA03F303434FEA65
:10034800154EAFB2B1FBFEFC0EFB1C10190C0CFBDA
:1003580007F841EA0041884504FA02F422D96918ED
:100368000CF1FF3004D2884502D9ACF102002944CF
:10037800A1EB08019BB2B1FBFEFC0EFB1C110CFBB0
:1003880007F743EA01439F420ED9EB180CF1FF31FE
:1003980004D29F4202D9ACF102012B44DB1B41EA93
:1003A800004192E76046E3E76146F7E76046A3E766
:1003B8006346B7E7834206D916B9002108467BE7AA
:1003C800C6E900E0F9E7B3FA83F78FB9834201D3AE
:1003D800724508D8BEEB020460EB030301209C467B
:1003E8001EB9002168E73846FAE7C6E9004CF8E785
:1003F800C7F1200CBB4022FA0CF41C432EFA0CF176
:1004080020FA0CF3B84001434FEA14490EFA07F5F5
:10041800B3FBF9F81FFA84FE09FB18300B0C08FB34
:100428000EFA43EA00439A4502FA07F240D9E31864
:1004380008F1FF3004D29A4502D9A8F102002344FA
:10044800A3EB0A0389B2B3FBF9F809FB183308FBDD
:100458000EFE41EA03418E452CD9611808F1FF339D
:1004680004D28E4502D9A8F10203214443EA004090
:10047800A0FB0298A1EB0E014145CE46434602D3AC
:1004880006D14D4504D2B9EB020E68EB04030138DE
:10049800002EA6D0B5EB0E0261EB030101FA0CFCAD
:1004A80022FA07F34CEA0303F940C6E9003198E75A
:1004B8004046C5E74346D9E710B50B4C0B484FF00B
:1004C800FF324FF0FF3302F0B5FA206803F0E1FC89
:1004D800064802F027FB206808B103F0DAFC002187
:1004E800022002F0BFFEF6E77C030020B0000020E7
:1004F8002DE9F743002330498DF80730044603F00F
:1005080022FB2E492E4FDFF8BC80DFF8BC90204636
:1005180003F019FBA3681B68002B39D00DF1070104
:1005280020469847002833D13B688BB34FF0FF3201
:100538004FF0FF33404602F07DFA9DF80710386807
:1005480003F013FD0646D9F8000003F00FFC05463A
:10055800404602F0E7FA9DF80710204603F0EBFA50
:100568009DF807300A2B01D00D2B11D1042E0FD87E
:10057800DFE806F0031B1D0E1F00052D08D8DFE875
:1005880005F00E030A0C10121049204603F0DBFA9E
:1005980002F0DEFDBEE70E49F7E70E49F5E70E4922
:1005A800F3E70E49F1E70E49EFE70E49EDE70E498B
:1005B800EBE70E49E9E700BF2C560008495600084A
:1005C80078030020B00000207C0300208B56000830
:1005D800A3560008B4560008C1560008DD560008A6
:1005E800125700082A57000847570008785700088C
:1005F80008B5024903F01DFB08BD00BF9657000867
:1006080008B5022996BF034B034953F8211003F09C
:1006180010FB08BD8C520008A65700082DE9F043CE
:100628004348444E444D454FDFF81491DFF8148198
:1006380089B04FF4B01103F0E2FA43484FF4B01117
:1006480003F0DDFA30464FF4D01103F0D8FA28460B
:100658004FF4B01103F0D3FA3C4B3D4A1A6096E8C8
:1006680003003C4A5A60DA6001221A7403F114024A
:1006780082E803000024384A1C725C815C82DC61D9
:100688003B60364B13604B46354943F8041B95E8ED
:100698000300344EC2F8048083E803001146304654
:1006A80003F0DDFA4946304603F0D9FA2E4D42F2FE
:1006B80010730093324639682C4E2D4B284603F0B0
:1006C80026FB2C4B294630461D6003F039FC2A4B8B
:1006D80000271E600026294D294904940523CDE9E9
:1006E8000243CDE90667CDE90044264B4FF480620A
:1006F800284602F0B3FA2449284604F0EEF9234DBF
:10070800234904940723CDE90243CDE90667CDE9DF
:100718000084204B4FF40072284602F09FFA1E49CD
:10072800284604F0DAF9204609B0BDE8F08300BF96
:1007380008530008F8520008F0520008800300200F
:10074800D0030020E04E000800530008E403002016
:10075800A0520008B84E0008DC030020C852000868
:10076800E052000804040020AC03002084030020A9
:10077800180400207C030020780300204801002092
:1007880000080020C1040008B6570008C80000206F
:10079800C0050020F9040008C057000808B505483E
:1007A8004FF47A7103F09BFABDE80840024803F061
:1007B8004DBA00BF1804002004040020416111B1A3
:1007C800024BB3FBF1F1C161704700BF008793038F
:1007D80073B50C46054625492046FFF713FD01462B
:1007E80028B9286803F016FB002002B070BD204924
:1007F8002046FFF707FD08B90121F2E71D49204609
:10080800FFF700FD08B90221EBE71B492046FFF777
:10081800F9FC08B90321E4E718492046FFF7F2FC80
:1008280008B90721DDE716492046FFF7EBFC08B9B0
:100838000621D6E71349204603F05CFB98B10DF179
:100848000701002604F109008DF8076003F05EFB3C
:100858009DF80730014623B118B12868FFF7AEFFAD
:10086800C2E70220C1E70120BFE700BF0658000821
:100878000C58000811580008175800081E5800089E
:100888002A58000838580008014B1B68184700BF51
:1008980000000020014B1860704700BF00000020D6
:1008A80030B585B004460D4610220021684604F094
:1008B800EDF902238DF802302A46044B01932146B4
:1008C800684602F0DBFE05B030BD00BF91080008A5
:1008D80080B505460E461746984602F0E1FC0346E9
:1008E80004F040FADFF81890044649F80030424610
:1008F80030463946A84754F8090000F0F9F900BF16
:1009080008000000034A536823F0020353600020E4
:10091800704700BF002004E0134B1A6842F40072CD
:100928001A601A6842F480621A601A6842F4807287
:100938001A600E4B0E4A1A600E4A536843F00103C0
:1009480053600D4B9A6D42F080529A659B6D0B4A2D
:1009580082B003F080530193019B936843F4804372
:10096800936002B0704700BF00200240740000206E
:100978000024F400002004E0001002400070004051
:10098800014B0360002070471053000808B5034B63
:100998001B689847BDE8084000F026B8040000200E
:1009A80030BFFFF7FDBF00BF2DE9F0410B4EDFF868
:1009B800308006EB0807CC1B05463246094920461D
:1009C80004F056F9A01942460021083C04F05EF9EB
:1009D8002C6707F10800BDE8F08100BF00000000A7
:1009E8000400000084520008074A936893F90E1027
:1009F800002907DB526993421FBF044A536843F03A
:100A080080535360704700BF5805002000ED00E098
:100A180070B5264B15469A6A12F0100F9A6A14BFE1
:100A28001124102412F0080F9A6A18BF1224920792
:100A380006460AD5586B9A6A140634D519B19A6ACB
:100A480022F080029A62132401E06FF01500174B20
:100A58009A6A12F0010F9A6A18BF142412F0200F34
:100A68009A6A18BF1524D20602D49B6A9B070AD536
:100A78000E4B5B68190506D5314600F011FA10B126
:100A880080F309880224094B9A6A920642BF5A6A7F
:100A980022F400525A629A6A42F0FF029A620023D4
:100AA8002B70204670BD6FF01500CCE700ED00E01C
:100AB800134B9A6A12F0007F9A6A14BF1E201D20F9
:100AC80012F0807F9A6A18BF1F2012F4002F9A6ACA
:100AD80018BF212012F4802F9A6A18BF222012F41E
:100AE800003F9A6A18BF232012F4803F9A6A6FEA7F
:100AF80002426FEA12429A6218BF2420704700BF70
:100B080000ED00E010B5194B0246986A9C6A10F493
:100B1800805F14BF1720162014F4006F9C6A18BF5A
:100B28001820A40509D5986B986A000404D51AB151
:100B38009A6A22F400429A6219200C4B9A6A12F4BB
:100B4800806F9A6A18BF1A20D2050CD49B6A13F4D6
:100B5800005F18BF1C20054A936A43F47F439362E1
:100B680000230B7010BD1B20F5E700BF00ED00E06F
:100B7800F0B5484B5B688BB00446C3F30803002507
:100B880085F31188BFF36F8F02F07F40B0F17F4F7C
:100B980011D102F00C0008280DD010074CBF0C46EC
:100BA80001250022033B8DF80720032B05D8DFE839
:100BB80003F0246367602C46F3E700239DF80720C1
:100BC800CAB902AE04F1200720686168324603C240
:100BD8000834BC421646F7D1099A002D54D0C2F306
:100BE800080121B96FEA52226FEA4222099202A94A
:100BF800184603F0F3FA0BB0F0BD264BDA6A9107FA
:100C0800DBD4DA6A002AD8DBDA6A5200D5D55A6909
:100C1800A16942F480725A61BFF34F8FBFF36F8F9F
:100C28005A6931F8021C22F480725A61BFF34F8F5F
:100C3800BFF36F8F4DF6027291420AD09A6AD2B210
:100C48004AB10DF1070201212046FFF7E1FE0346F4
:100C5800B4E72368B2E79A6A12F47F4F05D00DF122
:100C680007010120FFF74EFFF1E79B6AB3F5803FCC
:100C7800A3D3FFF71DFFEAE70DF107020021E3E721
:100C88000DF107010020EDE722F4FF7222F00102C6
:100C9800ACE700BF00ED00E0044B5A6942F01002D7
:100CA8005A615A6922F008025A61704700ED00E063
:100CB800EFF30880EFF3098101B57246FFF758FF9B
:100CC80001BD00BF102080F3118808484FF404616B
:100CD800401880F30988EFF314800221084380F359
:100CE8001488BFF36F8F00F09BF80000400C0020C1
:100CF800084B9B6883420BD1EFF3058343B1064B46
:100D08005A6842F080525A605A6A22F400425A6283
:100D180003F06FBF5805002000ED00E0094A936812
:100D28006FF00A019967084958674B6843F0805388
:100D38004B60002383F31188BFF36F8F9368986F1C
:100D4800704700BF5805002000ED00E015498A688B
:100D58004FF030001044EFF3098C80E8F01F1020AA
:100D680080F31288BFF36F8F0F4F4FF000664A6908
:100D78008A603E604FF07004141920680B4C2060A4
:100D8800506F0023536780F3118804B5104600F0B4
:100D9800EFF8BDE8044002F1300090E8F01F8CF352
:100DA800098870475805002004ED00E0240400205D
:100DB8001EF0040F0CBFEFF30880EFF30980816980
:100DC80011F8021C0229FFD001B5724603F00CFA93
:100DD80001BD00BF40B2002807DB044A41090123D6
:100DE80000F01F00834042F82130704700E100E026
:100DF80040B20028A8BF00F1604001F10101B8BF6E
:100E0800064B4FEA0111ACBF00F5614000F00F003E
:100E1800C9B2B4BF195480F80013704714ED00E04C
:100E28000F4A08B50F4B22F07F029A60BFF34F8F2D
:100E3800BFF36F8FD3F8882022F47002C3F888209C
:100E4800EFF3148323F0040383F31488BFF36F8F45
:100E580001F022FD02F0B0FA00F060F801F060FD48
:100E68000000000800ED00E042F8203C009B42F83A
:100E78001C3C0A49019B42F8183C029B42F8143C6E
:100E880021F001014FF0807342F8043C42F8081C3D
:100E98000023203A02654367704700BFD90800085D
:100EA800094A0346906870B113F1160F006E05D019
:100EB800A0F140029A4205D8834203D2814228BF5A
:100EC80000207047002070475805002008B51546D7
:100ED8000B4A0C4B9060026F1A600E4600F048F8FF
:100EE8002C4686F309884FF00000074B98472046A8
:100EF8004FF000014FF000024FF00003034C204771
:100F0800580500202404002001420008D9080008E0
:100F1800014B10221A61704700ED00E004480023DD
:100F28001021C2180133662B82F80013F9D17047DB
:100F380000E100E008B5EFF30583064A103B02EB39
:100F4800C30152F8330049688847BDE80840FFF7F5
:100F58004BBD00BF444F0008024B034A0348012120
:100F680000F076B8000002200000002010530008AE
:100F7800026E054B403A1A60044A4021C3E9011247
:100F88001846012100F06EB82804002000000B1557
:100F9800084AC2F898000B6823F01F03034343F084
:100FA8001003C2F89C308B6843F00103C2F8A030EC
:100FB800704700BF00ED00E02DE9F043DFF86080E6
:100FC80085B00E461F4604464FF00009B14523DAA6
:100FD8006068D8B13FB1411E08421BD11F2819D9FA
:100FE8002368194216D12368019303F019F9A368FD
:100FF80003430393D8F89050C5F30725D0B2013DB9
:10100800A84207D801A9FFF7C3FF421C09F101094B
:101018000C34DBE76FF01502104605B0BDE8F0832D
:1010280000ED00E0044B0522C3F89420BFF34F8F76
:10103800BFF36F8F704700BF00ED00E0BFF35F8F15
:10104800024B0022C3F89420704700BF00ED00E077
:1010580010B5034C01232278FFF7AEFF207010BDB6
:101068008805002008B50B4A00231278FFF7A4FF73
:1010780010F1160F07D0084A0021D2F89030C3F3B8
:101088000723984200DB08BDC2F89800C2F8A010F8
:101098000130F2E78805002000ED00E02DE9F0437B
:1010A800534B544CD3F890302568C3F307239D4223
:1010B80085B000F29A80FFF7C1FF00200C26854218
:1010C8001AD14D4C4D4F25706846FFF759FCDFF893
:1010D8002081DFF82C9106460025AE4213D12378F3
:1010E80043490020D1F89020C2F30722934276DBCF
:1010F800FFF798FF002042E0616806FB0011FFF748
:1011080047FF0130DBE7009800EB05114FEA051CAB
:10111800CB683B40B3F5000F48D00AD8B3F5001FA1
:1011280030D0B3F5800F36D0B3F5801F10D001351D
:10113800D3E7B3F1807F42D0B3F1007FF7D150F805
:101148000C3088684A6803F06BF840F4802009E0A6
:1011580050F80C3088684A6803F062F840F088500C
:1011680040F43020CDE901230390D8F8903020785E
:10117800C3F30723013B98422AD96FF0150005B045
:10118800BDE8F08350F80C3088684A6803F048F8E6
:1011980040EA0900E6E750F80C3088684A6803F02E
:1011A8003FF840F0E06040F40030DBE750F80C30E6
:1011B80088684A6803F034F840F08270D2E750F843
:1011C8000C3088684A6803F02BF840F08870C9E74B
:1011D80001A9FFF7DDFE237801332370A7E7C1F8E3
:1011E8009830C1F8A00001337CE74FF0FF30C6E724
:1011F80000ED00E01C530008880500200000F0FF07
:101208000000081108B5024B1B689847002008BD6C
:1012180034040020034B044A1860937843F0020317
:1012280093707047340400200800002008B5064970
:10123800064821F00701C1F1005202F5003202F020
:1012480080FF002008BD00BF471A00203804002096
:1012580003484FF0FF324FF0FF3301F0EBBB00BF04
:1012680018000020014801F05DBC00BF18000020F4
:1012780010B50446FFF7ECFF2146034802F052FF81
:10128800BDE81040FFF7EEBF380400202DE9F0411B
:101298000F4E104F054600244FF001082A78131905
:1012A800DBB208FA03F0736930EA030309D152FA92
:1012B80084F3706157F833201AB107EBC3035968F8
:1012C80090476A780134E3B29A42E7D2BDE8F081E8
:1012D8000004014044040020044B18440023013357
:1012E800994200F8012BFADC704700BF800000200B
:1012F80007B5062201210020FFF7EEFF0022114664
:101308000620FFF775FD012108460722FFF7E4FFD5
:10131800002211460720FFF76BFD08220121022059
:10132800FFF7DAFF002211460820FFF761FD0922C6
:1013380001210320FFF7D0FF002211460920FFF703
:1013480057FD0A2201210420FFF7C6FF002211469B
:101358000A20FFF74DFD052108461722FFF7BCFFBD
:10136800002211461720FFF743FD282206210A20F4
:10137800FFF7B2FF002211462820FFF739FD074A80
:1013880092E803006B4683E8030005488268194623
:101398001268904703B05DF804FB00BF8452000850
:1013A800184E0008034660B1B0FA80F2C2F11F027D
:1013B800D2B205498856054A11680B431360FFF7F6
:1013C80009BDFF22F5E700BF8000002000040140AE
:1013D800024A136823EA00031360704700040140BF
:1013E800032921D8DFE801F0020C10190F4B9A6885
:1013F80022EA00029A60DA6822EA0002DA6070479C
:101408000A4B9A680243F5E7084BDA680243DA6048
:101418009A6822EA00029A607047044B9A6802436D
:101428009A60DA681043D860704700BF0004014032
:1014380030B5B0B1B0FA80F3C3F11F03DBB20B488B
:1014480050F833408C4204D100EBC3056D689542D7
:1014580005D044B940F8331000EBC30042600020C7
:1014680030BDFF23EBE76FF00F00F9E744040020DD
:1014780060B1B0FA80F3C3F11F03DBB2044A002164
:1014880042F8331002EBC30251607047FF23F5E7BF
:101498004404002000F00302043292000F2393401A
:1014A80043EA900000F003030233074A52F823206E
:1014B800030C93FAA3F3B3FA83F302EA104003F0A0
:1014C8001F03D840704700BF0000014010B5214BF2
:1014D80018680B68082B144616D00B2B0BD89BB139
:1014E800013B0A2B10D8DFE803F017162E1633310C
:1014F800160F1A252500582B0ED008D84C2B0BD0C8
:10150800502B09D0482B07D06FF0850006E05C2BE4
:1015180002D0602BF7E700202060002010BD00F00B
:10152800C7F80623B0FBF3F0552358430723B0FB55
:10153800F3F0F1E700F0BCF80623B0FBF3F0552315
:1015480058434008E8E74FF4FA40E5E70248E3E784
:101558000248E1E77400002000366E01006CDC02EE
:10156800F8B54F4F4F4C00F0C1F8384602F00BFF6A
:1015780000F056FEA3684C4AC3F303131578D35CF6
:1015880005F01F0503F01F0320FA03F647FA05F5D7
:10159800AE4202D2284601F081F8236823F4802362
:1015A8002360236843F48033236023689A03FCD5BF
:1015B800D4F8943043F00103C4F89430D4F894304C
:1015C8009B07FBD5D4F8983043F00103C4F8983052
:1015D800D4F898309807FBD5A36803F00C030C2BBC
:1015E80018D12368590506D4236843F4807323600F
:1015F80023685A05FCD5A36823F0030343F00103CD
:10160800A360A36803F00C03042BFAD1A36823F0AA
:10161800F003A360236823F080732360E36823F05A
:10162800605323F4003343F06053E360E36843F40A
:101638008033E360E36823F4C003E360E36843F4C2
:101648008013E36000F038F8236843F08073236068
:1016580023689B01FCD5A36823F0F00343F08003C3
:10166800A360A36843F00303A360A36803F00C031B
:101678000C2BFAD1A368AE4223F0F003A36002D387
:10168800284601F00BF8094B1F60A36823F4E063B8
:10169800A360A36823F46053A3600020F8BD00BFD3
:1016A80080FE210A001002404F59000874000020F3
:1016B8000048704700366E010A4AD2F8803023F499
:1016C8008073C2F8803002F5D032074BD1680B40E6
:1016D80043F4AA4343F05303D360D36843F08073C1
:1016E800D3607047007000400C80FFF9064B9A6D7C
:1016F80042F080529A659B6D82B003F0805301934B
:10170800019B02B0704700BF0010024008B50748AF
:1017180003F097F938B10648FFF77CFD0448FFF756
:10172800B9F8002008BD6FF01200FBE7E04E000892
:101738003D1700080A2838B5074D044604D1AB68A0
:101748000D215B6828469847AB6803485B68E1B29F
:101758009847204638BD00BFE04E00082DE9F84301
:10176800D0F80480D0F81090D8F8080017460D4635
:101778001E4602F06AFDB7F5001F044616D128463A
:10178800D8F80840FFF786FE84420CD1294602F0BB
:101798005CFD0446FFF71CFE2046FFF769FE0021AA
:1017A8002046FFF71DFE0020BDE8F883B7F5800F3F
:1017B80020D0B6F1806F19D0B6F1C06F18D0B6F14D
:1017C800007F1AD1022610494A462046FFF730FE0C
:1017D800B0B9D8F80810284602F03AFD204631463C
:1017E800FFF7FEFD2046FFF7DDFDDCE70126EAE70F
:1017F8000326E8E76FF08500D6E76FF01500D3E71A
:101808006FF00F00D0E700BF4946000838B50369FC
:1018180004465860084D284603F013F940B1616842
:10182800AB680C311B682846984700EAE07038BD61
:101838006FF01200FBE700BF184E00082DE9F047D3
:101848001E4F044600EBC1060025B44201D100201A
:1018580014E02068C30600F01F0911D4656845F03C
:101868002005C0F3481AC0F344200F2823D857F89E
:101878002080B8F1000F0DD16FF01200BDE8F0879D
:10188800B9F1100F04D0B9F1110FEAD16568E8E792
:101898003025E6E7404603F0D4F80028ECD04B4664
:1018A8002A460AF00F01404602F0E0FE002804F143
:1018B8000804CADAE2E76FF01500DFE70854000809
:1018C800B1F5807F28D016D8102927D00FD8012944
:1018D80026D0042908BF012318BF09231349026A27
:1018E800C85C02238340134023FA00F07047402964
:1018F80008BF0323F0E7B1F5804F13D007D8B1F53F
:10190800806F11D0B1F5805F08BF0623E4E7B1F519
:10191800803F08BF0823DFE70423DFE70223DDE772
:101928000023DBE70723D9E70523D7E7F0580008AA
:101938002DE9F04701F1FF3C88B0BCF1050FBDF877
:10194800407045681646984600F208812B68B3F146
:10195800804F06D0844A934203D0B6F5803F00F208
:101968000081824A042952F82C4007F4807A0CD965
:10197800BAF1000F40F0F2802046D1469EB91A6AAB
:1019880022EA00021A62002085E0794A52F82C9077
:10199800BAF1000F05D0B9F1000F00F0DF8048461A
:1019A800ECE72046EAE7AA6862BB013E1A6A07F03C
:1019B800010730EA02024FEA47074AD1B0F5807FB3
:1019C80000F0C28032D8102800F0C0802AD8012840
:1019D80000F0BE80042808BF012218BF092265480C
:1019E800196A805C0222824021EA0202874017437A
:1019F8001F62614B286853F82C30414698472B6882
:101A0800DE62C0E7102A02D108F1FF38CDE722F0E4
:101A18004001202902D0402A40F0A3804FEA58080C
:101A28007608C3E7402808BF0322D6E7B0F5804F01
:101A380000F0908008D8B0F5806F00F08D80B0F588
:101A4800805F08BF0622C8E7B0F5803F08BF0822BC
:101A5800C3E7684602F0DCFF602300930123BAF174
:101A6800000F1BD0029305972B681B6A34EA030307
:101A78000CBF01230023019328682146FFF720FFAC
:101A88000490CDF80C8028686A46214600F05AFC7C
:101A9800B8B16FF0040008B0BDE8F087019304976F
:101AA800B9F1000FEDD02B681B6A39EA03030CBFAC
:101AB80001230023029328684946FFF701FF059098
:101AC800DFE72A68136843F080031360B4F5807F6A
:101AD8002A6831D01FD8102C30D018D8012C04D047
:101AE800042C08BF012018BF0920244B195C244B83
:101AF8001832185C545808238340234353502B68EA
:101B0800DE622A68536943F0010353613BE7402CC6
:101B180008BF0320E7E7B4F5804F11D007D8B4F524
:101B2800806F0FD0B4F5805F08BF0620DBE7B4F5FF
:101B3800803F08BF0820D6E70420D6E70220D4E774
:101B48000720D2E70520D0E7042248E7022246E72B
:101B5800002244E7072242E7052240E76FF015001C
:101B680099E76FF0850096E7000C0040D85400080C
:101B7800C8540008F0580008B05400080459000878
:101B8800FA5800082DE9F04186B006694468374DD7
:101B9800284602F056FF002862D0D5F8088004F1E4
:101BA8000C07D8F80030394628469847002804DB47
:101BB800D8F80C3023B96FF0570006B0BDE8F081B3
:101BC80001AA3946284698470028F6DB019B33606E
:101BD800D6E901018368DB6803B19847606901AA07
:101BE800002102F058FD0028E7DB019B002219794B
:101BF8001868FFF723FE0028DFDB01A802F0FFFECC
:101C08006368ADF80430A36802930023CDE9033379
:101C180001A9206800F03AFB28BB2368144A9342C4
:101C280013D002F5006293420FD002F5406293424E
:101C38000BD002F58062934207D002F5806293428E
:101C480003D002F50062934203D15A6C42F4004279
:101C58005A642268136843F0010313600020ACE75C
:101C68006FF01200A9E76FF00400A6E7184E00080D
:101C7800002C0140012912D0022907D089B9006837
:101C8800094BC01A18BF0120000370470068064BB3
:101C9800984214BF4FF440504FF400507047002052
:101CA80070474FF4005070470080004070B51D46E3
:101CB800094B002633F812203346FEF789FA090249
:101CC80041EA10616C08000220182A46334641F1A7
:101CD8000001FEF77DFA70BD14560008F7B50269D9
:101CE800436810681D680C46D9688368DB68B3B11F
:101CF80001AA9847002812DB214B9D4232D1019F4F
:101D0800204E00252346AAB238460021FFF7CEFF11
:101D1800A0F54070B04204D901350C2DF2D103B0C2
:101D2800F0BD174EF36A23F00F032B43F362002C28
:101D3800F5D0154B33F81520002319463846FEF721
:101D480047FA090241EA106163080002C0182246F6
:101D58004FF0000341F10001FEF73AFAC0F3130017
:101D6800F060DCE72B6823F400432B60019B002C18
:101D7800D5D003EB5403B3FBF4F39BB2EB60CEE78F
:101D880000800040FFFC0F00145600082DE9F843BE
:101D980006460A794068336904685F68012A0D4677
:101DA80058D0931ED3F1000848EB03084FEA88285F
:101DB8006979FFF75FFF95F80690B9F1020F0346BE
:101DC8004BD0B9F1040F4CD0002A54D0033A012A61
:101DD80049D94FF48050B3F5805F4ED0B3F5405FDA
:101DE8004DD0002B0CBF0123032399423BD1414620
:101DF80002F0B4FC814536D1EB79C3B1012B40D157
:101E0800214B9C4213D0A3F574439C420FD003F599
:101E180080639C420BD003F580639C4207D003F596
:101E280080639C4203D003F540539C421BD1236836
:101E380023F0010323602946304602F045FD23685C
:101E480043F00103236095E8030087E803000020BE
:101E5800BDE8F8834FF4C068AAE73AB94FF080505C
:101E6800B9E7002AB5D06FF08500F1E7033A012AF7
:101E7800F9D90020AFE71046ADE70023B5E7022304
:101E8800B3E7032BBCD0EEE700380140F7B505698E
:101E9800446806465048286002F0D3FD002800F048
:101EA80094802868E16883681B6898470028C0F216
:101EB8008E80206A01AA002102F0EDFB0028C0F202
:101EC8008680019B002219791868FFF7B7FC002863
:101ED8007DDB756833692C685F68236823F001032C
:101EE8002360686802F0ADFD00286ED0D5E90101D5
:101EF8008368DB6803B1984754E8003F43F00C035C
:101F080044E80032002AF7D13946304602F0DCFCBA
:101F18002B7D1BB1A36843F00803A3606B7D1BB145
:101F2800636843F400436360AB7D1BB1636843F4AB
:101F380080336360EB7D1BB1636843F400336360F7
:101F48002B7E83B3254B9C4213D0A3F574439C424C
:101F58000FD003F580639C420BD003F580639C424D
:101F680007D003F580639C4203D003F540539C429D
:101F78002FD173681A68936843F480439360236889
:101F88006A7E23F0787343EA425323602368AA7E6B
:101F980023F4F81343EA02432360EB7E1BB1A368E2
:101FA80043F40043A3602B7F1BB1236843F0005325
:101FB8002360236843F001032360E3699A02FCD598
:101FC800E3695B02FCD5002001E06FF0120003B06A
:101FD800F0BD6FF01500FAE7184E00080038014010
:101FE80010B54FF0E0230F499C691A6908689B698E
:101FF8000D4902F4803234B993B903464AB90A68E4
:102008001044C01A10BD002B08BF03460AB9A342EA
:10201800F5D90A6802440A604FF0E0221269EEE737
:102028000446F3E754050020500500200A4B10220F
:1020380083F82320094B44F268221A60084B0020D9
:1020480018604FF0E02344F267225A6198611A69D8
:1020580042F007021A61704700ED00E054050020C5
:1020680050050020684620F007018D4619B5FFF796
:10207800B7FF114B1149D3E900420868001942F132
:102088000002C3E900020E4A00230B60D2E90041B6
:1020980044F26823001BB0FBF3F043431B1941F1E2
:1020A8000001C2E9003101F063FAFEF79DFCBDE8CA
:1020B80019408546704700BFD00100205005002018
:1020C800C80100202DE9F041DFF8DC8099B1421CFD
:1020D8000BD14FF0E022136923F0010313614FF095
:1020E8007F43C8F80030BDE8F081D8F800600128C7
:1020F80007DC00270BE0431CD8F80060F7D140F25A
:10210800D93040F2DA339842A8BF1846471EEFF399
:102118001185102383F31288BFF36F8FFFF760FFD9
:10212800224C4FF0E0239969D4E90023801843F149
:102138000003C4E900031E4B00221A601D4B1A68F5
:10214800831A2ED444F2682C0CFB073303F584431E
:102158006733B3FBFCF7131A0CFB073340F2264234
:10216800934238BF1346144A934228BF13464FF090
:10217800E022C8F80030013B906953610023936165
:102188008142A1EB0003D4E9001238BF9B195B1808
:1021980042F10002C4E9003285F31188BFF36F8F62
:1021A800A1E740F22643E2E754050020D0010020D1
:1021B80050050020C80100202882FF0038B5EFF341
:1021C8001185102383F31288BFF36F8F084B1C68A7
:1021D800084B1B68E41AFFF703FF85F31188BFF368
:1021E8006F8F44F268232044B0FBF3F038BD00BF82
:1021F800D0010020C801002038B5EFF31185102365
:1022080083F31288BFF36F8F044B1C68FFF7E8FE57
:1022180085F31188BFF36F8F204438BDD0010020AB
:10222800174B9A6802F00C02042A23D09A6802F02D
:102238000C02082A20D09A6802F00C020C2A1DD140
:10224800D968DA68D868DB6801F00301C3F3416331
:102258000329C2F30312C0F3062003F101030CBFE4
:10226800084909495B000132B1FBF2F25043B0FB67
:10227800F3F07047044870470248704700207047E1
:102288000010024000366E010024F4002C4A036856
:10229800904245D0B0F1804F42D0A2F5943290429E
:1022A8003ED002F5806290423AD002F580629042B8
:1022B80036D002F59432904232D002F5E052904284
:1022C8002ED0A2F58052904207D002F5806290424B
:1022D80003D002F58062904227D1CA6823F4407384
:1022E800134303608B68C3620B888362144B984264
:1022F80013D003F5006398420FD003F5406398426A
:102308000BD003F58063984207D003F580639842A9
:1023180003D003F5006398420CD10B69036309E00D
:102328004A6823F070031343D7E703608B68C362DE
:102338000B888362436943F00103436100207047BF
:10234800002C0140B1F5805F30B500F021810AD83A
:10235800102900F08E80B1F5807F00F0D28001292D
:1023680041D0012030BDB1F5803F00F05B81B1F56F
:10237800801FF6D1036A23F480130362036A016D98
:10238800146821F0807121F4E04141EA04241169C4
:1023980023F4001343EA0153516823F4801343EAFA
:1023A80001539F49884213D001F5006188420FD03C
:1023B80001F5406188420BD001F58061884207D061
:1023C80001F58061884203D001F50061884206D199
:1023D8004168956921F4802141EA852141600465BD
:1023E800D268C26442E0036A23F001030362036A0D
:1023F80041688469156824F4803424F073042C43FC
:10240800156923F002032B43556823F001032B437E
:10241800834DA84213D005F50065A8420FD005F5F5
:102428004065A8420BD005F58065A84207D005F5A0
:102438008065A84203D005F50065A84212D1556908
:1024480023F0080343EA8503956823F0040343EA6D
:102458008503956921F480712943D56921F40071B8
:1024680041EA450141608461D26842630362002009
:1024780078E7036A23F010030362036A41688469FA
:10248800156824F0807424F4E64444EA05241569A8
:1024980023F0200343EA0513556823F0100343EAA9
:1024A80005135F4DA84213D005F50065A8420FD06B
:1024B80005F54065A8420BD005F58065A84207D010
:1024C80005F58065A84203D005F50065A84213D13B
:1024D800556923F0800343EA8513956823F0400388
:1024E80043EA8513956921F4806141EA8501D5693C
:1024F80021F4006141EAC50141608461D2688263C8
:10250800B4E7036A23F480730362036A4168C46909
:10251800156824F4803424F073042C43156923F4DB
:10252800007343EA0523556823F4807343EA0523BF
:102538003B4DA84213D005F50065A8420FD005F51C
:102548004065A8420BD005F58065A84207D005F57F
:102558008065A84203D005F50065A84213D15569E6
:1025680023F4006343EA8523956823F4806343EAF0
:102578008523956921F4805141EA0511D56921F433
:10258800005141EA45114160C461D268C2636DE7F8
:10259800036A23F480530362036A4168C4691568B7
:1025A80024F0807424F4E64444EA0524156923F4ED
:1025B800005343EA0533556823F4805343EA05334F
:1025C800174DA84213D005F50065A8420FD005F5B0
:1025D8004065A8420BD005F58065A84207D005F5EF
:1025E8008065A84203D005F50065A84213D1556956
:1025F80023F4004343EA8533956823F4804343EA90
:102608008533956921F4804141EA8511D56921F422
:10261800004141EAC5114160C461D268026425E7FE
:10262800002C0140036A23F480330362036A016DBE
:10263800146821F4803121F070010C43116923F4EE
:10264800003343EA0143516823F4803343EA0143EA
:102658001149884213D001F5006188420FD001F575
:10266800406188420BD001F58061884207D001F5AE
:102678008061884203D001F50061884206D1416833
:10268800956921F4803141EA052141600465D268E9
:10269800816C8264EAE600BF002C0140294A136875
:1026A800D2F8802012F4807F03F4C063264A00F138
:1026B800FF3124D1914242D8B3F5007F2FD1234B6B
:1026C800984234D8224B984233D8224B984234D877
:1026D800214B984294BF00200120204A136823F020
:1026E8000F0303431360136803F00F0398421CBFE2
:1026F800136803F00F03C01A18BF012070479142F6
:102708001DD8B3F5007F0AD1154B98420FD8154B49
:1027180098420ED8144B98420FD8144BD9E7B3F50A
:10272800806F08D1124B984207D8124BD1E704208A
:10273800D3E70320D1E70020CFE70220CDE701202F
:10274800704700BF007000407FFE210A00321B085E
:102758008065140600990D0480CC06020020024012
:10276800000E2707804A5D050087930380C3C901CF
:1027780000366E01001BB70038B5EFF31185102342
:1027880083F31288BFF36F8F064B9C6802F06CF9D5
:1027980085F31188BFF36F8F2046BDE83840FEF7F8
:1027A800A7BA00BF5805002038B5094B53F8204098
:1027B800013053F82050A54200D838BD636823B1D2
:1027C800204602F054F90834F5E723689847FAE7F9
:1027D800FC55000870B52B4B2B4C2C4D012286B0B4
:1027E80003201A70FFF7E0FF00F042FF02F05BF9E8
:1027F8000420FFF7D9FF2646AE4204F1300410D377
:1028080000F056FC204C224EAC4226D300F064FC6B
:10281800FDF704FF1F4A137B23F00103137306B06F
:1028280070BD54F80C3C059354F8103C049354F8CC
:10283800143C039354F8183C029354F81C3C01933D
:1028480054F8203C009354E90A2354E90C0100F0A1
:10285800B9F954F8303C5E65CDE7D4E90A23B3F101
:10286800FF3F08BFB2F1FF3F05D052EA03012068DD
:1028780003D102F035F93034C6E73146183000F09C
:10288800FDFDF8E78905002074520008745200081D
:10289800F34B00085802002008B50348034A0021FA
:1028A800121A02F0FCF808BDC800002090050020AC
:1028B80070B5002386B00122CDE90423134E144DD0
:1028C80001930F22CDE902321249142303FB00556C
:1028D80006EBC01604464FF4C07000FB04110E4B03
:1028E80000954FF4A072304600F06CF9737B0B4AE8
:1028F800EE6023F0040373734FF4046304FB0333A3
:1029080013442C746B6006B070BD00BFD801002062
:102918005805002080140020BD4A0008400C002003
:10292800BFB50020FFF740FF2C4B83F308882C4DE0
:102938002C4E6B692C4F43F400736B610024F02319
:1029480085F82230EC772C766C76AC7685F82040CA
:102958006B6A43F4E0236B62FEF79EF9FEF7D8FA40
:102968004FF0FF33AB62EB62FEF798FBFEF7F4FA29
:102978001E4BB36040F201129A81C3E91844DC6629
:1029880002F05EF8FDF7C8FF0120FFF70DFF0220F7
:10299800174DFFF709FF00F0D3FB164B7561059340
:1029A800012315490094CDE903434FF480623B4667
:1029B800CDE90144284600F005F96A7B064622F075
:1029C800040228466A7302F0C7F82046FFF770FF32
:1029D8003A4631462846FEF779FA00BF80140020AF
:1029E80000ED00E058050020DD270008D80200208F
:1029F800580200205F5900080016002038B5054C21
:102A0800256804EB850405B938BD54F80439013D3F
:102A18009847F8E77452000838B5044C044DAC42A6
:102A280000D338BD54F8043B9847F8E780520008B3
:102A3800845200082DE9F341044617461E46EFF379
:102A48001188102383F31288BFF36F8FC368334A4A
:102A58007BB180689168884219D057EA060318D17B
:102A680088F31188BFF36F8F6FF00F0002B0BDE8D5
:102A7800F081916891F90E1021610133E360936848
:102A8800A36088F31188BFF36F8F0020EEE72169F8
:102A9800F2E791F90E1090F90E309942A8BF194645
:102AA8006FF07E029142B8BF11468B422DDD02F0D5
:102AB8000CF80546CDE9007619482246414600F053
:102AC80039FA0028E1D0EFF31186102383F3128836
:102AD800BFF36F8FA068D0B1236821699C420AD0E8
:102AE8004BB193F90E309942A8BF19466FF07E0397
:102AF8009942B8BF194601F0E8FF40B1084831468D
:102B080000F092FA6FF00A00B0E70025D2E7002D36
:102B1800F4D186F31188BFF36F8FF3E758050020CF
:102B28008A050020F8B583680546002B3FD0234A64
:102B3800926893423ED1C368012B03D9013BC3601D
:102B48000020F8BDEFF31187102383F31288BFF339
:102B58006F8F0169806801F0B8FF2C68A54207D122
:102B68000023C5E9023387F31188BFF36F8FE7E7C6
:102B7800002CF5D0D4E9003213605A60637B00263C
:102B880023F002036373C4E90066A66004F1180029
:102B980002F051F8AC6094F90E302B612046A6671C
:102BA80001F0DAFF0648394600F03EFAC8E76FF050
:102BB8001500C6E74FF0FF30C3E700BF58050020F7
:102BC8008A0500202DE9F043073285B022F007027C
:102BD8000E461F461099017300F158037F32C0E971
:102BE80016330446002322F03F0204218360417318
:102BF8003F2A0F98A073C4E90633E37306F140092E
:102C0800A2F1400805D883F31188BFF36F8F0846F7
:102C180002DFB51829462046FDF7C6FE07300E9B91
:102C280020F00700A066C4E9189802930D9B019351
:102C38002D1A0C9B00932A463B4631462046FEF748
:102C480013F900236365044B9B6803B1DB6EE366ED
:102C5800284605B0BDE8F08358050020F0B587B0D8
:102C680000250595109D04950F9D03950E9D0295D1
:102C7800DDE912760D9D01950C9D00950446FFF740
:102C8800A1FFB6F1FF3F08BFB7F1FF3F05D056EAF5
:102C9800070305D1204600F0D9F9204607B0F0BD5A
:102CA80003493A46334604F1180000F0E7FBF4E71D
:102CB800F34B000838B590F90D20437B002A0146F4
:102CC80004DA03F07F03437301F00CFF0D4D2A462D
:102CD800AB6852F8184F944200D004B9EC688B42A4
:102CE80007D05A7BD20604D1DA897F2A01D9A26992
:102CF8002AB1A34202D0204600F006FB23466B61AE
:102D080038BD00BF5805002070B590F90D30427BE2
:102D1800002B36DBD10634D18369002B31D11C4C12
:102D280062F07F024273224652F8181F914218BF80
:102D38000B46E16923B9C0E900210860E0610CE0B5
:102D480090F90E5093F90E60B5421BD0AE4219DDD2
:102D58005968C0E9003108605860A569954200D0FB
:102D680005B9E568A3685A7BD20604D1DA897F2AB7
:102D780001D9AA6952B1AB4202D0284600F0C4FA80
:102D8800656170BD9942D6D01B68D3E76361F8E7E7
:102D9800580500202DE9F843002A427B0CBF4FF06C
:102DA80010094FF0080919EA020F04460F4621D10D
:102DB80049EA0203D2092AD14373B9F1080F2CD08A
:102DC8004FF00008344E334653F8185F9D4200D048
:102DD80005B9F568B368AB4202D0284600F094FA0A
:102DE800B9F1100F756144D1BFF35F8F637B23F096
:102DF80060036373284B9B68A34247D1EFF30583B5
:102E0800002B43D13846BDE8F843FDF787BF03F0F0
:102E18007F03437301F066FECFE7A36813B1204632
:102E280001F068FE04F1180001F005FFA56D04F13A
:102E38005806AE4211D04FF0000875B1284601F08F
:102E480059FE05F1180001F0F6FEC5F8788028460D
:102E5800FFF75AFFA56DAE42EFD10F4B9B689C421E
:102E6800AED1EFF30588B8F1000818BF4FF001089C
:102E7800A8E7B8F1000FB7D0084BB36040F20112D1
:102E88009A810022C3E91822DA66ADE787F3118830
:102E9800BFF36F8FBDE8F88358050020D8020020E3
:102EA80070B590F90D20437B002A014604DA03F03F
:102EB8007F03437301F016FE4B7B1D4C63F07F03C9
:102EC80022464B7352F8183FE069934208BF00232B
:102ED80023B9C1E900200160E1610CE091F90E50CD
:102EE80093F90E60B5421ED0AE421CDD5868C1E9A8
:102EF800003001605960A569A368954200D005B902
:102F0800E5688B4207D05A7BD20604D1DA897F2A3A
:102F180001D9AA692AB1AB4202D0284600F0F4F9D7
:102F28002B46636170BD9842D3D01B68D0E700BFC1
:102F380058050020F8B5124B0C461146114A9868FE
:102F48001060DDE90676EFF31182102282F3128811
:102F5800BFF36F8F9D68284601F0D6FDB6F1FF3F9D
:102F680008BFB7F1FF3F06D007493A46334605F197
:102F7800180000F083FA2046BDE8F840FDF7CEBE01
:102F88005805002078050020F34B0008F8B50446E2
:102F9800EFF31187102383F31288BFF36F8F437BFE
:102FA800DA0649B219D18569BDB903F07F034373C5
:102FB80001F098FD437B1B4E817363F07F034373DD
:102FC800334653F8182F9A4218BF1546F2695DB96F
:102FD800C4E900321460F46111E0A173002087F3A2
:102FE8001188BFF36F8FF8BD95F90E00814214D098
:102FF800884212DD6A68C4E9005214606C60B469E2
:103008009C4200D004B9F468B3689C4202D02046C0
:1030180000F07AF974610120E1E7AA42D8D02D685E
:10302800D5E700BF5805002049B9EFF3058030B94E
:10303800054B5A699B689A4201D0FDF76FBE81F330
:103048001188BFF36F8F70475805002010B5EFF354
:103058001184102282F31288BFF36F8F427B5107CD
:1030680004D484F31188BFF36F8F10BD22F00402DB
:103078004273FFF749FE21460248BDE81040FFF7BA
:10308800D3BF00BF8B050020034648B9EFF3058284
:1030980032B9064A51699268914201D0FDF73EBEA5
:1030A80083F31188BFF36F8F704700BF5805002066
:1030B800EFF31181102383F31288BFF36F8F054B51
:1030C8009A68D37B013BD37381F31188BFF36F8F69
:1030D800704700BF5805002070B5EFF31186102324
:1030E80083F31288BFF36F8F144DAB68DA7B01321C
:1030F800DA732A4652F8184F944200D004B9EC68A3
:103108005A7BD20604D1DA897F2A01D9A2692AB169
:10311800A34202D0204600F0F7F823466B6186F3FD
:103128001188BFF36F8FEFF31180102383F3128898
:10313800BFF36F8FBDE87040FFF7A6BF58050020AA
:10314800024B03F11802C3E9062270475805002014
:10315800F8B5EFF31186102383F31288BFF36F8F4E
:103168001D4CA068437B03F07F03437301F0BAFC56
:10317800A3685A7B214662F07F025A7351F8182FD0
:10318800E0698A4208BF002222B9C3E9001003603F
:10319800E3610CE093F90E5092F90E70BD4217D01E
:1031A800AF4215DD5068C3E9002003605360A5698C
:1031B8008D4200D005B9E568A3689D4202D0284633
:1031C80000F0A2F865613046BDE8F840FDF7A6BDFD
:1031D8008242DAD01268D7E75805002050EA010386
:1031E8002DE9F04105460E4603D1FFF7B1FF002057
:1031F8002BE0831C71F1FF3329DB01F031FD2C1822
:10320800EFF31188102383F31288BFF36F8F124FE7
:10321800124BB8681860FFF74DFDB86810492A4688
:103228003346183000F02AF9BA68537B43F010038C
:1032380053734046FDF772FD01F012FD201A63EB4F
:103248000303012873F10003D1DBBDE8F0816FF0BF
:103258000104241AD4E700BF58050020780500208F
:10326800F34B0008B1F1FF3F08BFB0F1FF3F08B5CD
:1032780006D10A4B986801F07EFC4FF0FF3008BD7C
:10328800FFF7ACFFC11709304FF00A024FF00003F7
:1032980041F10001FCF79CFFF1E700BF5805002051
:1032A800014B9868704700BF58050020044BC01AAE
:1032B800044BC0105843044B01221A54704700BFF6
:1032C80058030020ABAAAAAA8C050020C3897F2B2B
:1032D80012D80A4B1B6863B1094B90F90E201B6882
:1032E8009A4209DB437BDB0606D1064BC31A18BF9B
:1032F800012303F0010070470023FAE7800500204E
:103308007C050020D801002070B50E4B0E4C1E7CA9
:1033180006EB460304EBC3040546204601F08BFC8C
:103328000A4B002228469A55FFF7D0FF48B1084BB0
:1033380008491A68013A2046D317BDE8704000F0E2
:103348009DB870BD58050020580300208C0500204A
:1033580080050020B532000838B5EFF31185102339
:1033680083F31288BFF36F8F104B114A9C68106863
:10337800A04206D1FFF7C8FF85F31188BFF36F8F0E
:1033880038BD00211B7C11600A4AD35C002BF3D0A6
:103398002046FFF79BFF0028EED0637BDB0602D1B7
:1033A8002046FFF77DFD2046E4E700BF58050020D2
:1033B800780500208C0500200748084A084908B508
:1033C800121A01F06EFB0748074A0849BDE8084091
:1033D800121A01F066BB00BF00000020C4000020E4
:1033E8009C59000800000020000000209C5900089B
:1033F800034B1B680BB9FEF7E1BE0020704700BF06
:103408008405002030B570B10B4B5B6898420AD038
:10341800036843B1D3E90421D0E90445121941EB0B
:103428000501C3E90421D0E9003213605A60002382
:10343800C0E9003330BD00BF7800002010B50E4B46
:103448001C689C4204D1FFF7D3FF6FF0004010BD09
:10345800FFF7CEFF002CF8D0D4E904321B1A62EB38
:10346800E072B3F1004F72F10001EEDA002AACBF4E
:1034780018460020EBE700BF78000020B3F1FF3FBB
:1034880008BFB2F1FF3FF8B504461D4616465ED0A8
:103498008160EFF31187102383F31288BFF36F8FD6
:1034A800013275F1FF3324DA2E49D1E900206FF09B
:1034B80001039B1A4FF0FF3262EB00009E1B60EB8A
:1034C8000500012E70F1000301DA01260020C4E98D
:1034D8000460254ED6F800C07568B44508BF4FF0A3
:1034E800000CBCF1000F0DD1C4E900652C607460BC
:1034F8001CE0FFF77DFF013645F10005361845EB66
:10350800E070E4E7DCE90420D4E90431934271EB8C
:10351800000E1DDAD21ADCF8043060EB0100CCE9A9
:103528000420C4E900C31C60CCF804403368B342EB
:1035380009D09C4207D10D4B1C6824B9FFF77EFFC8
:103548002146FEF7BFFD87F31188BFF36F8FF8BDE3
:103558009B1A61EB0001AC45C4E90431C4D0DCF826
:1035680000C0BEE77003002078000020840500201A
:103578002DE9F84FEFF3118C102383F31288BFF372
:103588006F8FDFF8B0A0DFF8B0902C4FC9F80000BB
:10359800DAF800000024504508BF00200025D7E9CC
:1035A8000021D9F80030E04678B3D0E9046C4FEA3E
:1035B800E37EB3427EEB0C0B05DAF61A6CEB0E04D5
:1035C800C0E9046421E0B21841EBE671C0E90445A2
:1035D800C7E90021FFF716FF88F31188BFF36F8F43
:1035E80083689847EFF31188102383F31288BFF399
:1035F8006F8FD9F80030DAF800009B1B5045C4469D
:10360800C9F80030CBD1D7E900219A1841EBE37310
:103618000024C7E90023C9F80040FFF70FFF21463F
:10362800FEF750FD88F31188BFF36F8FBDE8F84FA0
:10363800FFF792BE78000020840500207003002068
:1036480010B5EFF31184102383F31288BFF36F8F43
:10365800FFF7CEFE054A0346D2E90001181841EBF0
:10366800E37184F31188BFF36F8F10BD70030020DE
:10367800014800F0A5BD00BF645900082DE9F04FCE
:103688008DB043680293837815469A07804640F1C7
:103698000D8100240E78002E00F00A81252E0BD013
:1036A8004B1C03930134029B41463046984700283F
:1036B800C0F2F6800399EDE74E788B1C252E039314
:1036C800F0D00027B946BB46BBF11F0F38D8A6F18A
:1036D8002003102B0AD8DFE803F02A09093009096A
:1036E800092109090928092D09091F00A6F1300334
:1036F800092B33D92A2E37D11BF0400F55F8043B3C
:1037080040F08280002BA7BF4BF0200B9946C3F1F5
:1037180000094BF0280B01E04BF0010B039B13F859
:10372800016B0393002ECFD130E04BF0020B4BF02E
:10373800040BF3E74BF0080BF0E74BF0100BEDE749
:10374800BBF17F0F19D8A6F13003092BD2D81BF093
:10375800400F03D00A2101FB0737DFE70A2101FBED
:1037680009394BF0200BD9E72E2E06D11BF0400F5C
:1037780040F09E804BF0400BD0E76C2E31D02BD818
:10378800682E36D06A2E3CD04C2E3AD0002F46F008
:103798002003B8BF2BF04002A3F16501BCBF1FFA9C
:1037A80082FB0027022901D9612B2FD1073525F08B
:1037B8000705DFF8ACA2083507271BF0080F66D00D
:1037C8000AEB070B56465E4563D1A4EB0A0A06EBE3
:1037D8000A02A9EB07096FE1742E9FD07A2E9DD0BB
:1037E800D4E71BF0800F18BF4BF4007B4BF0800B25
:1037F80094E71BF4807F18BF4BF4007B4BF4807B6D
:103808008CE74BF4207B89E71F4687E7A6F1630125
:10381800122900F2F080DFE811F013004F00EE00EB
:10382800EE00EE00EE004F00EE00EE00EE00EE00BF
:10383800EE00FE00E900EE00EE001B00EE00AF0017
:1038480055F8043B8DF8183001270DF1180AB4E734
:1038580055F804AB834BBAF1000F08BF9A461BF02A
:10386800400F14BF39464FF0FF31504601F016FAA9
:103878000746A2E7029B41462020984700280FDB15
:10388800013EB742F6D34C44A41BB14698E74E46D6
:10389800F7E716F8010B029B41469847002892DA91
:1038A80098F8023043F0040388F802304FF0FF34F0
:1038B80020460DB0BDE8F08F1BF0800F34D01BF40C
:1038C800007F2CD0073525F00705AA4669685AF805
:1038D800080B2BF010050029ADB237DA404261EB36
:1038E800410145F480650DF1180B0A235A4601F091
:1038F800E1F9A0EB0B0301936B0662D5019B25F060
:1039080001019F4289B240F3A180002E00F0998006
:1039180015F0100240F09C80BB460D4623E0AA46F5
:103928005AF8040BC117D4E7AA461BF4807F5AF84B
:10393800041B01D10846F5E71BF4007F15BF48B208
:1039480008B241F3C01141F3C031C2E750EA0103A4
:10395800C9D11BF0400FC6D0002FC4D12BF01102E3
:1039680095B2BB46019740F2064115EA01021CBF19
:103978000BF1010B00222CE02BF010021FFA82FB46
:103988000A231BF0800C49D01BF400711DBF0735BA
:1039980025F00705AA46AA461ABF5AF8080B69680F
:1039A8005AF8040B50EA010545D12BF016051BF017
:1039B800400FADB242D0002F40D12BF0170295B284
:1039C800019715F0100248D0019B002E42D103F157
:1039D800010B29075AD4EB0706D5D9456FDD0199A4
:1039E800A9EB0B035F18CB465B4649E04BF0100B85
:1039F80010237826C5E7782B04D1C6F1780343F065
:103A08001003BEE7029B4146252098470028FFF691
:103A180047AF023447E608230026B2E7AA461BF45C
:103A280080715AF8040BBDD01BF400711ABFC0B2E4
:103A3800614680B2B6E72BF0060295B20DF1180B7D
:103A480054E725F01105ADB2BB468CE70D46B8E743
:103A58003B460D4603F1020BBBE7DDF804B082E7F5
:103A6800935900088C590008CDE904324146029B5D
:103A7800202098470028FFF613AF049B059A0133CE
:103A88009945F1DCA4EB0B01CC189B460AB3029BC9
:103A98004146302098470028FFF602AF8EB901341E
:103AA8002744019B391B994224DC1D465DBB019AC2
:103AB800A9EB0B09224455461446914435E0019F71
:103AC80092E7023441463046029B98470028E7DADD
:103AD800E6E640F206410D42E2D015F0020F14BFAF
:103AE8002B20202015F4806F04F10104414618BFF3
:103AF8002D20E9E7029B414630209847002804F131
:103B08000104CEDACCE606AB013D4146585D029B86
:103B180098470028CADAC3E6029B41462020984706
:103B2800002804F10104FFF6BBAEA9EB0403002B47
:103B3800F2DCBFE5704783685B681847C069704767
:103B48000023C361704738B505464C1E14F8011FA1
:103B580001B938BD2846FFF7EEFFF7E77047704711
:103B6800704710B52021044601F07EF8204610BDAC
:103B780010B50821044601F077F8204610BD10B5AD
:103B88000C21044601F070F8204610BD03460A4691
:103B980000681979012303FA01F103691B681942C6
:103BA80018BF82F0010212B18368DB681847836886
:103BB8001B69FBE738B5051D044601212846FFF7B8
:103BC800E5FF022000F02EFF00212846FFF7DEFF68
:103BD800E3690133E36138BD00210430FFF7D6BF44
:103BE80001210430FFF7D2BF0C30FFF7CFBF01210E
:103BF8001430FFF7CBBF00211430FFF7C7BFF0B474
:103C080003460A461979DB88006813430669876802
:103C18003468DA0748BF83F4402301258D4023F434
:103C28008012DB074CBF2C43AC4334603B68F0BCCC
:103C3800184738B505464C1E631C02D014F8011FFE
:103C480001B938BD6868FFF776FFF5E710B50021C0
:103C580004460182102201F019F8204610BD0346DF
:103C6800084649B11A7C032A05D8511C197443F82F
:103C78002200012070470020704770B50124437C62
:103C88008C40E2B21C4005460E4605D113434374EE
:103C98002A7CE3B29A4200D870BD55F82300036825
:103CA80031469B6898470134F2E770B50122437C9E
:103CB8008A401A420D460446D1B207D023EA0103CE
:103CC80043740026227CF3B29A4200D870BD54F89F
:103CD800230003682946DB6898470136F2E700228B
:103CE800C0E901220160704783680B448360D0E912
:103CF800002302FB0133436070470023C0E901330E
:103D0800704740684FF47A73B0FBF3F0704710B512
:103D1800C0E90012029A83600023C0E90423C0E9C5
:103D280006330373036210BD104605291CD8DFE86B
:103D380001F003070B131915B2FA82F04009704716
:103D4800042A0BD10120704722F004000138012811
:103D58008CBF00200120704702F0FD00431E58422E
:103D680058417047072AECE700207047007B7047EE
:103D780010B5044600680368DB6898472068036844
:103D8800DB699847A068FFF7B8FF00216068A16168
:103D9800FFF78BFF60680121BDE81040FFF785BF82
:103DA80010B50023836104460068036801215B693C
:103DB800984720680368BDE810409B68184710B50D
:103DC8000023036204460068036801215B69984781
:103DD80020680368BDE810409B68184700680368BE
:103DE800DB68184710B5044600680368DB68984725
:103DF80060680021BDE81040FFF73FBF10B50446DA
:103E080000680368DB68984760680121BDE81040D6
:103E1800FFF733BF38B50A46017B0446FFF784FF36
:103E2800054658B1052909D8DFE801F0030A122927
:103E38002B2D012323732046FFF7B2FF284638BDF8
:103E4800042A20D1022323732046FFF7B8FFF5E7A1
:103E5800022A05D1032323732046FFF7BFFFEDE7AE
:103E6800012A10D0052A04D122732046FFF7C6FF85
:103E7800E4E7042323732046FFF7B4FFDEE7032AB1
:103E8800DFE7072AE6D0002323732046FFF770FFF9
:103E9800D4E710B5037B012B04460FD100680368F3
:103EA8001B699847A3690133B3F5FA7FA3610ED361
:103EB80004212046BDE81040FFF7ACBF022B06D115
:103EC800C26922B1036AC8339A4201D9036210BD9C
:103ED80000230362006803681B699847A0680121F2
:103EE800FFF702FFA068FFF70CFF23699842EED3A3
:103EF8000521DEE7013911F8013F0BB901207047B0
:103F080010F8012B9A42F6D00020704710B50378BC
:103F1800303B092B0DD8431E0A24002013F8012F2B
:103F2800303A092A02D901230B7010BD04FB002086
:103F3800F4E700231846F7E70978202200F0A6BE28
:103F4800034613B543F8041B0446202218460021F3
:103F580000F09CFE0022A2840DF107018DF80720D5
:103F6800FFF7EAFF204602B010BD73B50A2990F8A2
:103F78002530044601D00D2927D1261D63B1002321
:103F8800A3840DF1070130468DF80730FFF7D4FF01
:103F98000425284602B070BD94F8242022441371E9
:103FA80094F824307BB131462046FCF711FC0546D5
:103FB800002384F824300DF1070130468DF80730CE
:103FC800FFF7BAFFE5E70325F2E733B990F82430A5
:103FD8001E2B04D9012380F825300025D9E71C447D
:103FE8005A1C80F824202171F7E700EBC1004088B3
:103FF80040087047F8B50346FFF7F7FFB0FA80F0BE
:10400800C0F11F0003EB800CCA00DCF81060171D1C
:104018000C4606328DB256B9012101FA00F0D96872
:104028000143D960CCF81040DD539D52F8BDF10032
:104038000431585AD85303EBC0009E52C5805D52D4
:10404800F4E710B500EBC104E388994202F10401DA
:104058000AD1012303FA02F2C36823EA0203C36008
:10406800002340F8213010BDA28840F8213000EB31
:10407800C20100EBC300CB808280F4E708B5034699
:10408800FFF7B3FFB0FA80F2C2F11F021846BDE88D
:104098000840FFF7D6BF38B50346FFF7A6FF0D4621
:1040A800044611461846FFF7A0FF03EBC505044474
:1040B800600068801846FFF798FF014423F83140F4
:1040C80038BD38B50546FFF790FF0C46014405EBAF
:1040D800C1035B88DA070AD42846FFF7CFFF2146D9
:1040E8002846FFF782FF22182846FFF7D4FF35F845
:1040F8003410611A05EBC1035B88DB070CD4284632
:10410800FFF7BCFF35F834102246611A2846FFF73E
:10411800C2FF35F83430E41A21462846BDE8384055
:10412800FFF768BF61B100680439091A21F0070375
:104138000344C9085A8822F001025A80FFF7C1BF18
:104148007047043A2DE9F041CC1D114424F00704CE
:1041580021F007010E1BF708B7FA87F2C2F1240510
:10416800AD004FF000080735C2F12002ED080460E9
:104178004146A760C4F80C80920004F1100000F0DA
:1041880085FD6B0043F00103638004EBC5027B1BD4
:104198005900A4F800805180A21924F83550A2F8DB
:1041A8000280A35304EBC70329465A8842F0010250
:1041B8005A802046BDE8F041FFF71CBF0020704739
:1041C8000FB407B504A951F8040B0191FCF768FB7B
:1041D80003B05DF804EB04B070477047012801D1C3
:1041E800EFF30583FEF7C8BA01460068FFF7F6BF8C
:1041F80000210120FFF7F2BF61B662B680F3118893
:10420800BFF36F8F704772B6002383F31188BFF333
:104218006F8FBFF34F8F30BF62B6BFF36F8F70479A
:10422800202809D9B0F1004F08D80138B0FA80F039
:10423800C0F11F0040007047082070473E207047BB
:1042480008B5FCF7DFFF002008BD01208840704753
:1042580000F00302043292000F23934043EA9000D7
:1042680010B500F003039B0003F1804303F580338E
:10427800020C9C6892FAA2F2B2FA82F202F01F02D1
:1042880024EA104091400143996010BD0B68A3F1E6
:104298004802182A82B012D803F1804303F5043388
:1042A80048681A6802431A600B6803F1804303F5F3
:1042B800043300201B680193019B02B070476FF024
:1042C8008500FAE70B68A3F14802182A9FBF03F19B
:1042D800804303F5043349681A689DBF8A43002068
:1042E8001A606FF0850070470B2809D840F66A738A
:1042F800C34013F0010F14BF00206FF08500704712
:104308006FF08500704710B50868FFF7EDFF0028CB
:1043180020DB4A68FF2A1CD0D3B203F1804303F59F
:104328000433C2F342341868C2F3042204FA02F2D6
:1043380020EA02021A604968CBB203F1804303F510
:104348000433C1F302421868C1F304218A400243CE
:104358001A60002010BD086808B5A0F14803182BA2
:104368000AD800F1804000F504304B680268934396
:1043780014BF0120022008BDFFF7B6FF002814BFB4
:1043880001200220F7E7704743685B681B690B60F0
:104398000020704743685B68586942400A404240C1
:1043A8005A610020704743685B6800209961704734
:1043B80043685B6800209962704743685A6853698C
:1043C8004B4053610020704710B503699868F8B1F5
:1043D800884219D1DC6808689860A14200D1D86089
:1043E800002008602AB19A680A60DA68996002B900
:1043F800D960002010E0814206D108682060D868A2
:104408008142EDD1DC60EBE7044600680028F2D178
:10441800002AE8D16FF0150010BDF0B544680120FE
:10442800676888401E46C2F3801327EA00078B405E
:104438003B43636090FAA0F7B7FA87F7D4F808C04F
:104448004FF0030E7F000EFA07F72CEA070C90FADC
:10445800A0F7B7FA87F7C2F3C1137F00BB4043EA5E
:104468000C03A36090FAA0F3B3FA83F3E7685B0048
:104478000EFA03F327EA030790FAA0F3B3FA83F3DB
:1044880002F030055B00C2F341229A403A43202DE6
:10449800E26016D107292BD890FAA0F3226A2BB331
:1044A800B3FA83F39B000F2101FA03F322EA030214
:1044B80090FAA0F3B3FA83F39B0006FA03F31343CD
:1044C800236290FAA0F3B3FA83F3226890FAA0F07B
:1044D8005B000321B0FA80F02D0901FA03F34000D4
:1044E80022EA030385401D432560F0BD2B46D9E72A
:1044F800030A616A93FAA3F282B1B2FA82F29200D5
:104508000F2793FAA3F3B3FA83F307FA02F29B0097
:1045180021EA02029E4016436662D2E72A46EEE787
:10452800F8B512F4003C06690C46134627D09107EB
:104538001ED55A0740F181805022DF0603F440352A
:1045480018D542F4007225B1316921FA04F7FF0742
:1045580046D51F03416869D549680123A3408B618B
:10456800406800232146FFF758FF002D4CD114E086
:104578001022E2E79906E6D542F48062E3E7D70322
:1045880002F4403520D5DA0612D5002D46D12B4647
:104598004FF400724068FFF740FF336923FA04F2D2
:1045A800D20731D50122A24023EA020333612BE06E
:1045B80013F0200704D04DBB2B464FF48062E9E787
:1045C800B5B92B462A46E5E715B92B463022E1E76F
:1045D800316921FA04F212F0010F4FF030020ED1C6
:1045E8000127A74039433161BCF1000FB1D106E082
:1045F800316921FA04F212F00102F1D03A4640681A
:1046080000232146FFF709FF0020F8BD316921FA90
:1046180004F212F0010F4FF48062E0E7316921FAE9
:1046280004F212F0010F4FF40072D8E75F0341BFA4
:1046380001234968A3408B6292E76FF08500E4E7A5
:1046480070B50B468968054611B15E680C6801B9FA
:1046580070BD8A682A4002D04B68304698471CB122
:10466800236821461C46F2E72346FAE7F8B51F46B9
:10467800044640680E461546FFF7CFFE112F08D1B5
:10468800012303FA06F663685B682A054CBF9E613E
:104698009E620020F8BD30B5036813600579046890
:1046A80004EBC504A34202D36FF0010030BD5C796E
:1046B8008C4201D00833F0E70020F7E741637047E8
:1046C80081637047C163704701647047836C81647C
:1046D8007047C16470474168036949681B680020D6
:1046E8000131B3FBF1F3C2E9003070474368C1F30D
:1046F8004B101B6801F01F01C05801238B40034277
:1047080014BF0123002313700020704710B54368BD
:10471800C1F34B101A6801F01F01845801238B4024
:1047280023438350002010BD10B54368C1F34B14D8
:10473800186801F01F01235801228A4023EA020366
:104748002350002010BD38B504460D46FFF7DEFFA4
:1047580029462046FFF7E8FF002038BDB0F5805F06
:1047680007D0B0F1805F09D1002914BF01200220D1
:104778007047002914BF032004207047002914BF84
:1047880002200320704743681B68D869DA69D1079B
:10479800DA69C0F3C00048BF40F002009207DA6946
:1047A80048BF40F004005107DA6948BF40F02000D4
:1047B800D20542BF4FF4807240F008001A62C10768
:1047C80044BF08221A62820744BF01221A624107C5
:1047D80044BF02221A62820644BF04221A6270474A
:1047E80010B543681B681020DA691206FCD5EFF390
:1047F800118280F31288BFF36F8FDC69240604D41A
:1048080082F31188BFF36F8FEEE7996282F3118804
:10481800BFF36F8F10BD43681B68DA69100744BF88
:1048280008221A62DA69920643BF5B6A0B7000209D
:104838004FF0FF30704710B50269526812680A607D
:1048480042681268126802F4C062B2F5806F0446CA
:104858000B4633D0A2F5C060424242411A716268E9
:104868001268526802F44052B2F5805F28D0B2F55F
:10487800405F27D0002A0CBF012203225A716268C8
:1048880012681068116800F0102001F4C061FFF789
:1048980065FF987162681268926802F44072A2F526
:1048A80040714A424A41DA7161680968896811F4BD
:1048B800804F18BF0322DA71002010BD0222CDE715
:1048C8000022DBE70222D9E72DE9F0410A790369E2
:1048D800D0F804805E68012A04460D4611D0901E67
:1048E80047424741BF0269794046FDF7C3F9AB79B2
:1048F800022B09D0042B31D0131E18BF01231B0330
:1049080006E04FF4C067EEE7B2FA82F35B091B07D3
:10491800EA79D8F80010012A14BF4FF0000C4FF4C0
:10492800407CAE421DD10A6822F0805222F4B05277
:104938003A431A430A604B6823F4405303434B60DD
:1049480063681A68936823F4407343EA0C0393601E
:1049580031682046BDE8F041FDF7C0B94FF48053F7
:10496800D6E7D1F800E00EF4C06E77451FBFD1F846
:1049780000E02EF4C06E4EEA07070F6061680F680A
:10498800796801F4405188421FBF796821F4405189
:104998000143796061680868016801F010218B4261
:1049A8001FBF016821F010210B4303606368196879
:1049B8008B6803F440739C451FBF8B6823F44073D6
:1049C80043EA0C038B6063681B689968490405D542
:1049D800032A09D09A6822F4804204E0032A03D10A
:1049E8009A6842F480429A6029683368994204D0F0
:1049F8002046FDF773F92B683360BDE8F08100238A
:104A08004FF0FF32C0E9022303804360036170471F
:104A18000023C0E90033C0E90233C0E90433C0E928
:104A28000633704738B5044648B1FDF7E5FBAA23BD
:104A380005465C43FDF7E0FB431BA342FAD338BDB0
:104A4800704740B1C368587810F001001EBF18784D
:104A5800B0FA80F040097047EFF31183102383F315
:104A68001288BFF36F8FFEE708B5FFF7F5FF10B5A3
:104A7800D0E9003433B90020E268537843F00103E9
:104A8800537010BD204698470028F4D00028B8BFBE
:104A98004042E368FF28A8BFFF201870ECE700F049
:104AA800F5B800F0E5B808B5FDF7A8FFBDE808407F
:104AB800FDF7B2BF08B51024EFF3118384F3128811
:104AC800BFF36F8FFFF79FFBF6E790F90E308B422D
:104AD80001D0FEF75BBA002070476FF057007047AF
:104AE800FEF7B4BAD0E9003213605A600023C0E977
:104AF8000033704708B5FFF7F5FF437B23F0020347
:104B080043730023836008BD38B504460D46FEF79D
:104B1800D1F8637B43F002036373E5B1A5602B68AA
:104B28009D4209D16B68C4E900531C606C6012E0B7
:104B38006A689A42F6D01B68002BF3D094F90E20CD
:104B480093F90E108A42F3D09142F1DD5A68C4E914
:104B5800003214605C6038BD10B5EFF31184102387
:104B680083F31288BFF36F8FFEF7CEF884F31188B2
:104B7800BFF36F8F10BD10B50446183000F05BF816
:104B8800EFF31181102383F31288BFF36F8F627BD9
:104B98001A4004D081F31188BFF36F8F10BD2046EF
:104BA800BDE81040FEF7F6B838B50446EFF31185B6
:104BB800102383F31288BFF36F8F437B13F0280F02
:104BC8000BD183680BB1FFF795FF637B51B903F0F5
:104BD800FB0363732046FEF797F885F31188BFF34C
:104BE8006F8F38BD03F0EB03F3E701211838FFF7A7
:104BF800DBBFEFF31181102282F31288BFF36F8FAE
:104C0800027BD2070CD581F31188BFF36F8F002385
:104C180083F31188BFF36F8F0423184602DF7047B0
:104C2800437B1B0704D581F31188BFF36F8F70474F
:104C38000122FEF7AFB810B5EFF31184102282F30A
:104C48001288BFF36F8F03683BB1FEF7DBFB0020D0
:104C580084F31188BFF36F8F10BD6FF01500F7E76D
:104C680008B5FEF7EDFC08BD00F000B8FCF700BB86
:104C78000A44914200F1FF3300D1704710B511F892
:104C8800014B03F8014F9142F9D110BD024403468C
:104C9800934200D1704703F8011BF9E710B50246AB
:104CA80001448A42134603D01C780132002CF8D103
:104CB800181A10BDF0B5C3F137070446FFB203F068
:104CC8001F031046082BE6B233D0102B3ED06508E0
:104CD800A40844EA817445EAC1752D194FEA910286
:104CE80042EB5102290941EA02716D1842EB121296
:104CF800290A41EA02616D1842EB1222290C41EAA5
:104D080002416D1842EB1242AD1842F10002EC0864
:104D180044EA4274D10804EB8402A6EB4205EDB2E2
:104D2800092D0CD90134A5F10A0541F10001EDB2B4
:104D380012E0E40844EA417406F00705C908303572
:104D480054EA010200F8015BBCD1F0BD240944EA31
:104D5800017406F00F050909092D84BFED19EDB29C
:104D6800EDE70000014800687047000024040020B7
:084D780094B4FF7F010000006C
:104D800069150008184E00080D0900080000000011
:104D9000000000002C4E000815180008A44E000862
:104DA00015180008CC4E0008F9120008404E000803
:104DB00015180008B84E000815180008904E000895
:104DC000151800087C4E000815180008684E0008E9
:104DD00015180008544E0008951E0008F44E0008EF
:104DE000951E0008E04E0008951E0008084F0008B8
:104DF0001517000800000000352000080000000022
:104E000035120008000000008D1B0008304F00081C
:084E10008D1B00081C4F000877
:104E18007D580008000000003C5300089200002064
:104E2800000000000E590008F0540008F45400086F
:104E3800A6000020000000005F58000800000000E5
:104E48000000000090000020440400208A58000858
:104E580058530008E453000894000020C4040020BC
:104E6800985800086C530008E45300089600002086
:104E7800D8040020A658000880530008E45300080E
:104E880098000020EC040020B4580008945300084F
:104E9800E45300089A00002000050020C2580008CA
:104EA800A8530008E45300089C00002014050020C3
:104EB800D0580008BC530008E45300089E000020A6
:104EC80028050020DE580008D0530008E4530008E5
:104ED800A00000203C0500201F59000804550008C8
:104EE800E8550008A8000020440000202F590008B9
:104EF80050550008E8550008AA000020540000207A
:104F08003F5900089C550008E8550008AC000020EF
:104F180064000020EC58000848540008A854000811
:104F2800A20000202C000020EC580008785400084B
:0C4F3800A8540008A4000020380000204D
:104F440000000000F941000800000000F9410008D9
:104F540000000000F941000800000000F9410008C9
:104F640000000000F941000800000000F9410008B9
:104F74005D580008951200085B5800089512000857
:104F8400595800089512000857580008951200084F
:104F9400555800089512000800000000F941000867
:104FA40000000000F941000800000000F941000879
:104FB40000000000F941000800000000F941000869
:104FC40000000000F941000800000000F941000859
:104FD40000000000F941000800000000F941000849
:104FE40000000000F941000800000000F941000839
:104FF40000000000F9410008535800089512000809
:1050040000000000F941000800000000F941000818
:1050140000000000F941000800000000F941000808
:1050240000000000F941000800000000F9410008F8
:1050340000000000F941000800000000F9410008E8
:1050440000000000F941000800000000F9410008D8
:1050540000000000F941000800000000F9410008C8
:1050640000000000F941000800000000F9410008B8
:1050740000000000F941000800000000F9410008A8
:10508400515800089512000800000000F94100087A
:1050940000000000F941000800000000F941000888
:1050A40000000000F941000800000000F941000878
:1050B40000000000F941000800000000F941000868
:1050C40000000000F941000800000000F941000858
:1050D40000000000F941000800000000F941000848
:1050E40000000000F941000800000000F941000838
:1050F40000000000F941000800000000F941000828
:1051040000000000F941000800000000F941000817
:1051140000000000F941000800000000F941000807
:1051240000000000F941000800000000F9410008F7
:1051340000000000F941000800000000F9410008E7
:1051440000000000F941000800000000F9410008D7
:1051540000000000F941000800000000F9410008C7
:1051640000000000F941000800000000F9410008B7
:1051740000000000F941000800000000F9410008A7
:1051840000000000F941000800000000F941000897
:1051940000000000F941000800000000F941000887
:1051A40000000000F941000800000000F941000877
:1051B40000000000F941000800000000F941000867
:1051C40000000000F941000800000000F941000857
:1051D40000000000F941000800000000F941000847
:1051E40000000000F941000800000000F941000837
:1051F40000000000F941000800000000F941000827
:1052040000000000F941000800000000F941000816
:1052140000000000F941000800000000F941000806
:1052240000000000F941000800000000F9410008F6
:1052340000000000F941000800000000F9410008E6
:1052440000000000F941000800000000F9410008D6
:1052540000000000F941000800000000F9410008C6
:1052640000000000F941000800000000F9410008B6
:0C5274000000000000000000000000002E
:04528000A507000876
:105284006000000001000000C8570008DA57000859
:10529400F25700080000000000000000693B00080D
:1052A4006B3B0008FF3B0008F73B0008BD3B0008D0
:1052B400F13B0008453B0008493B000800000000A2
:1052C40000000000673B0008793B0008090600085D
:1052D400F90500080000000000000000653B00081C
:1052E400873B0008E93B0008E13B0008A44E0008A6
:1052F4000D000000B84E000802000100B84E00087E
:1053040001000000B84E000800000000000000206A
:105314000000000000000B060200000024530008F7
:105324000000000842580008240002070000002082
:105334004A58000820000B1195420008CD4200088D
:1053440000000000D51400085F43000800000000BE
:105354000F430008FFFF000000180048060000008B
:105364004C00000040000000FFFF00000014004853
:10537400050000004C00000020000000FFFF0000BA
:1053840000100048040000004C0000001000000061
:10539400FFFF0000000C0048030000004C00000068
:1053A40008000000FFFF00000008004802000000A1
:1053B4004C00000004000000FFFF0000000400484F
:1053C400010000004C00000002000000FFFF00008C
:1053D40000000048000000004C0000000100000034
:1053E40029450008914300089D430008AF43000885
:1053F400B9430008C343000865170008D1430008F7
:1054040000000000CC4E0008B84E0008A44E00086E
:10541400904E00087C4E0008684E0008544E000868
:105424000000000000000000000000000000000078
:105434000000000000000000000000000000000068
:1054440000000000000400401027000000000000DD
:10545400580000000200000060540008685400086E
:1054640001000000705400080100000082020000E6
:1054740000000000000000400000000000000000E8
:1054840058000000010000009054000898540008DF
:1054940001000000A054000801000000A100000069
:1054A4000000000039190008DF460008C54600085E
:1054B400C9460008CD460008D1460008D546000874
:1054C400DB46000804000000400000000004000067
:1054D4000040000001000000100000000001000076
:1054E4000010000000000100000010000010024045
:1054F400F546000815470008314700084F470008E3
:10550400008000402C4E0008800700002855000849
:105514000100000000000000000000000000000086
:10552400305500085C0000000100000038550008F8
:105534000100000040550008020000004C0000007B
:10554400000200006C000000000000000044004065
:105554002C4E0008110700007455000801000000DB
:105564000000000000000000000000007C5500085E
:1055740058000000000002008455000801000000EB
:105584008C550008020000004700000000020000E3
:105594006700000000000000003801402C4E0008A5
:1055A4000E080000C05500080100000000000000C3
:1055B4000000000000000000C85500086000000062
:1055C40000400000D055000801000000D855000834
:1055D400020000008704000000020000A70400008D
:1055E400000000001F480008E94700088F47000832
:1055F400951D00083F480008804D0008804D0008B4
:10560400F84D0008004E0008184E0008184E000817
:10561400010002000400060008000A000C0010004B
:1056240020004000800000013D3D3D205379726917
:105634006E67652050756D70205265616479203DF8
:105644003D3D0D0A00436F6D6D616E64733A2053E6
:10565400544152542C2053544F502C2050415553F4
:10566400452C20524553554D452C205345545F52EB
:10567400415445203C6E3E2C20434C4541525F41F1
:105684004C41524D0D0A003E3E205072696D696EC8
:105694006720737461727465642E2E2E0D0A003EA9
:1056A4003E20496E667573696E672E2E2E0D0A00B4
:1056B4003E3E205061757365642E0D0A003E3E2007
:1056C40053746F707065642E204261636B20746F35
:1056D4002049444C452E0D0A003E3E204F43434C86
:1056E4005553494F4E20414C41524D21205479701D
:1056F4006520434C4541525F414C41524D20616607
:1057040074657220666978696E672E0D0A003E3EE4
:1057140020496E667573696F6E20636F6D706C657A
:105724007465210D0A003E3E204552524F523A20E4
:10573400556E6B6E6F776E20636F6D6D616E642E48
:105744000D0A003E3E204552524F523A20426164B7
:1057540020706172616D657465722E204578616D8B
:10576400706C653A205345545F52415445203132A0
:10577400300D0A003E3E204552524F523A20436FAC
:105784006D6D616E6420746F6F206C6F6E672E0D8B
:105794000A00414C41524D3A434C45415245440D57
:1057A4000A00414C41524D3A554E4B4E4F574E0D07
:1057B4000A0070756D705F7469636B007561727453
:1057C4005F727800414C41524D3A4F43434C55531C
:1057D400494F4E0D0A00414C41524D3A564F4C55DB
:1057E4004D455F434F4D504C4554450D0A00414CC7
:1057F40041524D3A504F5745525F4641554C540D16
:105804000A0053544152540053544F5000504155D0
:10581400534500524553554D4500434C4541525F55
:10582400414C41524D0053494D5F4F43434C5553F6
:10583400494F4E005345545F524154452000464C55
:105844004153485F30005352414D5F30000A060512
:105854000504010301020101010001696E7465720E
:10586400727570742D636F6E74726F6C6C657240B8
:10587400343030313034303000726363403430308F
:105884003231303030006770696F40343830303135
:10589400383030006770696F40343830303134301C
:1058A40030006770696F4034383030313030300048
:1058B4006770696F4034383030306330300067705F
:1058C400696F403438303030383030006770696F79
:1058D400403438303030343030006770696F4034D1
:1058E400383030303030300070776D0000020406FC
:1058F400080A0C0E1014000008000000080000083C
:105904000000000004040404383872657365742DC3
:10591400636F6E74726F6C6C65720073657269612B
:105924006C40343030303830303000736572696127
:105934006C40343030303434303000736572696117
:105944006C40343030313338303000000000000017
:1059540000000001020304060708096D61696E0076
:105964002A2A2A20426F6F74696E67205A6570680C
:105974007972204F53206275696C642076342E301E
:105984002E30202A2A2A0A00286E756C6C29002AD7
:08599400666C6F61742A0000CB
:10599C00C5410008A90900080000000049420008A0
:1059AC00000000000000000018000020180000207B
:1059BC0000000000000000000E00000000000000CD
:1059CC002C4E000801070000000000002C4E0008BF
:1059DC0000070000000000004C00002000C2010085
:1059EC0000010300000000005C00002000C2010068
:1059FC0000010300000000006C00002000C2010048
:105A0C00000103000024F40078000020780000203E
:105A1C00FFFFFFFFFFFFFFFFFFFFFFFFFFFFFFFF8A
:105A2C00000000000000000000000000000000006A
:0E5A3C0000000000000000000000000000005C
:025A4A00FFFF5C
:105A4C00B0000020B00000200000000000000000AA
:045A5C000E00000038
:045A600015E015E058
:0400000508000CCD16
:00000001FF
