:020000040800F2
:100000004020002069180008311500085518000824
:100010005518000855180008551800080000000081
:10002000000000000000000000000000551900085A
:100030005518000800000000F1180008BD3700083E
:10004000D91A0008D91A0008D91A0008D91A0008C4
:10005000D91A0008D91A0008D91A0008D91A0008B4
:10006000D91A0008D91A0008D91A0008D91A0008A4
:10007000D91A0008D91A0008D91A0008D91A000894
:10008000D91A0008D91A0008D91A0008D91A000884
:10009000D91A0008D91A0008D91A0008D91A000874
:1000A000D91A0008D91A0008D91A0008D91A000864
:1000B000D91A0008D91A0008D91A0008D91A000854
:1000C000D91A0008D91A0008D91A0008D91A000844
:1000D000D91A0008D91A0008D91A0008D91A000834
:1000E000D91A0008D91A0008D91A0008D91A000824
:1000F000D91A0008D91A0008D91A0008D91A000814
:10010000D91A0008D91A0008D91A0008D91A000803
:10011000D91A0008D91A0008D91A0008D91A0008F3
:10012000D91A0008D91A0008D91A0008D91A0008E3
:10013000D91A0008D91A0008D91A0008D91A0008D3
:10014000D91A0008D91A0008D91A0008D91A0008C3
:10015000D91A0008D91A0008D91A0008D91A0008B3
:10016000D91A0008D91A0008D91A0008D91A0008A3
:10017000D91A0008D91A0008D91A0008D91A000893
:10018000D91A0008D91A0008D91A0008D91A000883
:10019000D91A0008D91A0008D91A0008D91A000873
:1001A000D91A0008D91A0008D91A0008D91A000863
:1001B000D91A0008D91A0008D91A0008D91A000853
:1001C000D91A0008D91A0008D91A0008D91A000843
:0801D000D91A0008D91A000831
:1001D80080F0004002E000BF81F0004142001FBFF4
:1001E8005FEA410392EA030F7FEA226C7FEA236CFD
:1001F8006AD04FEA1262D2EB1363C1BFD2184140F2
:1002080048404140B8BF5B42192B88BF704710F087
:10021800004F40F4000020F07F4018BF404211F02A
:10022800004F41F4000121F07F4118BF494292EA92
:10023800030F3FD0A2F1010241FA03FC10EB0C00BE
:10024800C3F1200301FA03F100F0004302D549424B
:1002580060EB4000B0F5000F13D3B0F1807F06D3F8
:1002680040084FEA310102F10102FE2A51D2B1F1F0
:10027800004F40EBC25008BF20F0010040EA0300E5
:100288007047490040EB0000013A28BFB0F5000F65
:10029800EDD2B0FA80FCACF1080CB2EB0C0200FA1B
:1002A8000CF0AABF00EBC25052421843BCBFD0406A
:1002B8001843704792F0000F81F4000106BF80F4E4
:1002C80000000132013BB5E74FEA41037FEA226CA7
:1002D80018BF7FEA236C21D092EA030F04D092F072
:1002E800000F08BF0846704790EA010F1CBF0020A6
:1002F800704712F07F4F04D1400028BF40F0004003
:10030800704712F100723CBF00F50000704700F022
:10031800004343F0FE4040F4000070477FEA226249
:1003280016BF08467FEA23630146420206BF5FEA1A
:10033800412390EA010F40F4800070474FF000031A
:1003480004E000BF10F0004348BF40425FEA000CE1
:1003580008BF704743F0964301464FF000001CE089
:1003680050EA010208BF70474FF000030AE000BFDF
:1003780050EA010208BF704711F0004302D540421D
:1003880061EB41015FEA010C02BF8446014600208F
:1003980043F0B64308BFA3F18053A3F50003BCFAAA
:1003A8008CF2083AA3EBC25310DB01FA02FC634457
:1003B80000FA02FCC2F12002BCF1004F20FA02F25E
:1003C80043EB020008BF20F00100704702F1200251
:1003D80001FA02FCC2F1200250EA4C0021FA02F2B2
:1003E80043EB020008BF20EADC7070474FF0FF0CB7
:1003F8001CEAD0521EBF1CEAD15392EA0C0F93EAB2
:100408000C0F6FD01A4480EA010C400218BF5FEA53
:1004180041211ED04FF0006343EA501043EA5111C6
:10042800A0FB01310CF00040B1F5000F3EBF4900C0
:1004380041EAD3715B0040EA010062F17F02FD2AC4
:100448001DD8B3F1004F40EBC25008BF20F00100A7
:10045800704790F0000F0CF0004C08BF49024CEABE
:10046800502040EA51207F3AC2BFD2F1FF0340EA50
:10047800C250704740F400004FF00003013A5DDCC1
:1004880012F1190FDCBF00F000407047C2F1000202
:10049800410021FA02F1C2F1200200FA02FC5FEAEF
:1004A800310040F1000053EA4C0308BF20EADC7039
:1004B800704792F0000F00F0004C02BF400010F4AB
:1004C800000F013AF9D040EA0C0093F0000F01F058
:1004D800004C02BF490011F4000F013BF9D041EA7A
:1004E8000C018FE70CEAD15392EA0C0F18BF93EA7C
:1004F8000C0F0AD030F0004C18BF31F0004CD8D1A6
:1005080080EA010000F00040704790F0000F17BF2C
:1005180090F0004F084691F0000F91F0004F14D072
:1005280092EA0C0F01D142020FD193EA0C0F03D1CA
:100538004B0218BF084608D180EA010000F00040CD
:1005480040F0FE4040F40000704740F0FE4040F4A8
:10055800400070474FF0FF0C1CEAD0521EBF1CEA47
:10056800D15392EA0C0F93EA0C0F69D0A2EB030265
:1005780080EA010C49024FEA402037D04FF08053FF
:1005880043EA111143EA10130CF000408B4238BFC4
:100598005B0042F17D024FF4000C8B4224BF5B1AD2
:1005A80040EA0C00B3EB510F24BFA3EB510340EA20
:1005B8005C00B3EB910F24BFA3EB910340EA9C00CE
:1005C800B3EBD10F24BFA3EBD10340EADC001B013E
:1005D80018BF5FEA1C1CE0D1FD2A3FF650AF8B42E2
:1005E80040EBC25008BF20F0010070470CF0004CEF
:1005F8004CEA50207F32C2BFD2F1FF0340EAC2501A
:10060800704740F400004FF00003013A37E792F0DA
:10061800000F00F0004C02BF400010F4000F013A38
:10062800F9D040EA0C0093F0000F01F0004C02BF33
:10063800490011F4000F013BF9D041EA0C0195E79C
:100648000CEAD15392EA0C0F08D142027FF47DAF35
:1006580093EA0C0F7FF470AF084676E793EA0C0F25
:1006680004D14B023FF44CAF08466EE730F0004C23
:1006780018BF31F0004CCAD130F000427FF45CAFB3
:1006880031F000437FF43CAF5FE700BF4FF0FF3C21
:1006980006E000BF4FF0010C02E000BF4FF0010C74
:1006A8004DF804CD4FEA40024FEA41037FEA226C3D
:1006B80018BF7FEA236C11D001B052EA530C18BF5F
:1006C80090EA010F58BFB2EB030088BFC81738BFC4
:1006D8006FEAE17018BF40F0010070477FEA226CB2
:1006E80002D15FEA402C05D17FEA236CE4D15FEAAE
:1006F800412CE1D05DF8040B704700BF84460846E2
:100708006146FFE70FB5FFF7C9FF002848BF10F1A2
:10071800000F0FBD4DF808EDFFF7F4FF0CBF0120E7
:1007280000205DF808FB00BF4DF808EDFFF7EAFF71
:1007380034BF012000205DF808FB00BF4DF808ED2C
:10074800FFF7E0FF94BF012000205DF808FB00BF21
:100758004DF808EDFFF7D2FF94BF012000205DF8A7
:1007680008FB00BF4DF808EDFFF7C8FF34BF0120B4
:1007780000205DF808FB00BF4FEA4002B2F1FE4FCF
:100788000FD34FF09E03B3EB12620DD94FEA00234B
:1007980043F0004310F0004F23FA02F018BF404224
:1007A80070474FF00000704712F1610F01D142020B
:1007B80005D110F0004008BF6FF0004070474FF0BF
:1007C800000070477BB972B90029BEBF00204FF006
:1007D800004106E008BF00281CBF6FF000414FF041
:1007E800FF3000F057B8ADF1080C6DE904CE0029D0
:1007F80009DB002B1ADB00F06CF8DDF804E0DDE91A
:10080800022304B07047404261EB4101002B1BDB1F
:1008180000F05FF8DDF804E0DDE9022304B04042AF
:1008280061EB4101524263EB43037047524263EB71
:10083800430300F04EF8DDF804E0DDE9022304B0DC
:10084800404261EB41017047524263EB430300F0C1
:1008580040F8DDF804E0DDE9022304B0524263EB1E
:100868004303704753B94AB9002908BF00281CBF81
:100878004FF0FF314FF0FF3000F00CB8ADF1080C2D
:100888006DE904CE00F025F8DDF804E0DDE9022387
:1008980004B07047704700BF10F8012B11F8013BF6
:1008A800012A28BF9A42F7D0D01A7047430803F0AC
:1008B8005533C01A00F03333800800F03330184441
:1008C80000EB10104FF0013300F00F305843000ECA
:1008D80070472DE9F04786468C460846089E15461F
:1008E80074461946002B40F0C2808542B2FA82F263
:1008F80045D94AB1C2F1200300FA02FC2EFA03F3EB
:10090800954043EA0C0C94404FEA154EA8B2BCFB44
:10091800FEF8230C0EFB18CC08FB00F943EA0C4345
:10092800994528D9EB1808F1FF3704D2994502D91F
:10093800A8F102072B44A3EB0903A4B2B3FBFEFC06
:100948000EFB1C330CFB00F044EA0344A04214D90C
:100958002C190CF1FF3304D2A04202D9ACF10203E6
:100968002C44241A43EA07401EB1D44000233460C3
:100978007360BDE8F0874746DDE76346F1E792BB61
:10098800431B01214FEA154EAFB2B3FBFEFC200C0E
:100998000EFB1C330CFB07F840EA0343984562D969
:1009A800EB180CF1FF3004D2984502D9ACF10200E3
:1009B8002B44A3EB0803A4B2B3FBFEFC0EFB1C33D1
:1009C8000CFB07F744EA0344A7424ED92C190CF153
:1009D800FF3304D2A74202D9ACF102032C44E41B32
:1009E80043EA0040C0E7C2F1200320FA03F1954032
:1009F80090402EFA03F303434FEA154EAFB2B1FB12
:100A0800FEFC0EFB1C10190C0CFB07F841EA004118
:100A1800884504FA02F422D969180CF1FF3004D28F
:100A2800884502D9ACF102002944A1EB08019BB228
:100A3800B1FBFEFC0EFB1C110CFB07F743EA01435C
:100A48009F420ED9EB180CF1FF3104D29F4202D914
:100A5800ACF102012B44DB1B41EA004192E76046FE
:100A6800E3E76146F7E76046A3E76346B7E78342F3
:100A780006D916B9002108467BE7C6E900E0F9E780
:100A8800B3FA83F78FB9834201D3724508D8BEEB16
:100A9800020460EB030301209C461EB9002168E7AD
:100AA8003846FAE7C6E9004CF8E7C7F1200CBB4026
:100AB80022FA0CF41C432EFA0CF120FA0CF3B8407D
:100AC80001434FEA14490EFA07F5B3FBF9F81FFA88
:100AD80084FE09FB18300B0C08FB0EFA43EA0043AE
:100AE8009A4502FA07F240D9E31808F1FF3004D218
:100AF8009A4502D9A8F102002344A3EB0A0389B25C
:100B0800B3FBF9F809FB183308FB0EFE41EA034171
:100B18008E452CD9611808F1FF3304D28E4502D9CD
:100B2800A8F10203214443EA0040A0FB0298A1EB8C
:100B38000E014145CE46434602D306D14D4504D267
:100B4800B9EB020E68EB04030138002EA6D0B5EB12
:100B58000E0261EB030101FA0CFC22FA07F34CEADE
:100B68000303F940C6E9003198E74046C5E7434624
:100B7800D9E70000014803F07DBB00BF1802002040
:100B880073B5054640680E4618B90024204602B0E1
:100B980070BD05F0E4FF04460028F6D06868836855
:100BA8003C21DB6898470028EFD1686883686A466B
:100BB8001B690E2198470028E7D10198FFF7C2FB6F
:100BC8000749FFF7C7FC05460098FFF7BBFB01463E
:100BD8002846FFF703FB0349FFF708FC3060D5E719
:100BE80000247449000020412DE9F041164E174CAD
:100BF800174F304604F0E8F92368002BF9D000229B
:100C08000023384603F0BEFA0028F2D1114B1B78B6
:100C180003F0FF0813B1FFF7ADFFEAE7206804F01F
:100C28009BFD01280BD10C4D2B680133092B2B6040
:100C3800F1D9206804F031FEC5F80080EBE72068A0
:100C480004F02BFEE7E700BF300300203805002042
:100C580018020020E2070020180500202DE9FF47B0
:100C68000023B0498DF80F30044604F042FCAE4929
:100C7800AE4F204604F03DFCAD480022002303F0AF
:100C880081FAD0B9AB4BDFF8B092186804F064FD74
:100C98000546FFF76FFF99F80030AB420DD06B1E89
:100CA800042B08D8DFE803F0038C07ABA900A3499D
:100CB800204604F01EFC89F80050322004F0A3FC02
:100CC800DFF87C82A3681B68002BD5D00DF10F01DB
:100CD800204698470028CFD13B68002BCCD09DF800
:100CE8000F1098F800300A2902D00D2940F08980A9
:100CF80094480022C25488F80020204604F0F1FBF2
:100D08009DF80F300A2B01D00D2B28D18E498D4824
:100D1800FFF7C2FD18BB8D49204604F0EAFB4FF4EB
:100D28007A7004F070FC8A49204604F0E2FB4FF424
:100D38007A7004F068FC8749204604F0DAFB4FF427
:100D48007A7004F060FC8449204604F0D2FB4FF42A
:100D58007A7004F058FC8149204604F0CAFB4FF031
:100D6800FF324FF0FF337248DFF8C89103F00AFAF8
:100D78009DF80F10386804F0F0FD3B680646D9F876
:100D8800000093F825A004F0E7FC0546FFF7F2FE03
:100D98009DF80F300A2B01D00D2B93D1664B1D7097
:100DA800042E8FD801A353F826F000BF1B0E0008AD
:100DB800E70F0008EB0F0008CD0C0008EF0F000844
:100DC800DFF89C81674ED8F800000123337004F0E7
:100DD800F8FB6549204604F08CFB41F2883004F0AA
:100DE80012FC6249204604F084FBD8F8000004F0A5
:100DF800ECFB00235E4933705AE75E4958E75E49C9
:100E080056E71E2B9FBF5A1C88F800204D4AD15424
:100E180073E7BAF1000F61D0584A117820291346B8
:100E280002F10102F9D000264FF00A0C194611F818
:100E3800012BA2F1300009281BD91A460133117879
:100E48002029FAD0531E0A20002213F8011F303936
:100E5800092914D9002E3FF435AF002A3FF432AFE8
:100E6800013DEDB2012D0DD84549204604F041FB66
:100E780028E70CFB0622A2F130060B46D6E700FB5A
:100E88000212E2E74EF660257543B5FBF2F54FF026
:100E9800FF324FF0FF332648DFF8E8A003F072F97D
:100EA8002F4B394A1968002313602E4ACB611370FF
:100EB800364B374A1B6801934FF47A735E430096AA
:100EC800344B504604F017FC29465046C9F800A098
:100ED80000F01AFAFFF74EFE2F49C6E72F491948C6
:100EE800FFF7DAFC08B92E49BFE72E491548FFF786
:100EF800D3FC08B92C49B8E72C491248FFF7CCFCB9
:100F080008B92B49B1E72B490E48FFF7C5FC08B9CA
:100F18002949AAE729490B48FFF7BEFC002851D107
:100F28002749A2E7247B0008437B000834050020FA
:100F38001802002038050020C0070020A67B000802
:100F4800C1070020C2070020D87C0008DE7C00080A
:100F5800037D0008277D00084B7D00086F7D000891
:100F680040050020E2070020E47B0008247C0008FC
:100F7800617C0008857C0008B07C0008CB07002055
:100F8800957D00086C050020180500203C05002010
:100F9800DC050020F8050020D67D0008117E000839
:100FA8001D7E00084C7E00085A7E0008767E0008E8
:100FB8007D7E0008A37E0008A97E0008CD7E00087B
:100FC800D27E0008012D06D0032D06D0002D7FF417
:100FD80079AE064949E7064947E7064945E706491C
:100FE80043E7064941E706493FE700BF237F00087A
:100FF800FA7E0008147F0008417F0008607F00081F
:10100800947F000808B5024904F01AFB08BD00BF28
:10101800B47F000808B5022996BF034B034953F86B
:10102800211004F00DFB08BD38750008C67F0008C4
:101038002DE9F043614E624D624C634B33600022F0
:10104800012189B02B602360304602233271F2807F
:101058002971EA802371E18004F0BBFA284604F084
:10106800B8FA204604F0B5FA584804F0B2FA5848DD
:1010780004F0AFFA574F384605F071FD28B1564BCA
:10108800564AC3E90027564A1360564BD6F80080E3
:101098002F6820682179E288534CDF60534F96F817
:1010A80004E0B6F806C05A83C3E90048504A2E79CE
:1010B800DFF84081ED8883F808E00024A3F80AC02F
:1010C8001E745D8258611976DC613B604A4B13607F
:1010D80043464A4943F8041B3C49494D494E56602A
:1010E80003C983E803002B46474943F8041B3849E2
:1010F80003C983E803001146444804F0AEFA4146A8
:10110800424804F0AAFA29464048414D04F0A5FA9D
:10111800334B3E4A1B68019342F2107300933968BF
:101128003C4B3D4F284604F0E6FA3C4B29463846EE
:101138001D6004F0FBFB3A4B3A481F6022462146EB
:1011480005F06DFE4FF0FF384FF0FF390223CDE96F
:101158000243CDE90689CDE90044334B3349049471
:101168004FF40062324803F07BF93249304805F009
:1011780055FD0723CDE90243CDE90689CDE9006491
:101188002D4B2E4904944FF400722D4803F068F952
:101198002C492B4805F042FD022200232148CDE9C5
:1011A800002303F0D7FE224805F03BFD244805F054
:1011B80038FD204609B0BDE8F08300BF2C050020AB
:1011C800240500201C050020EC700008D0750008DC
:1011D800C8750008A0710008B405002074750008DF
:1011E8003C050020BC0500204C7500084005002087
:1011F800AC050020A005002088750008A07500082F
:101208009405002014710008B8750008DC0500205A
:101218006C050020F8050020440500203805002052
:101228003405002030030020F10B0008400A00209C
:10123800B0020020D87F0008650C000800080020D4
:1012480030020020E27F000808B505484FF47A71A3
:1012580004F039FABDE80840024800F005B800BFBC
:10126800F8050020DC05002010B50021044B0182A0
:10127800044643610176102205F00BFE204610BD9E
:1012880000507D4470B50122437C8A401A420D46C5
:101298000446D1B20BD023EA0103437415B9084BB5
:1012A800436105760026227CF3B29A4200D870BDCD
:1012B80054F8230003682946DB6898470136F2E7AB
:1012C80000507D44024B436100230376704700BF02
:1012D80000507D4438B504460846257E2DB90123C3
:1012E800616123760025284638BD6169FEF774FFE1
:1012F8000449FFF72DFA0028F4D00021204604F015
:10130800BAF9F0E700004842816111B1024BB3FB22
:10131800F1F10162704700BF0087930370B50D4675
:101328000026394980F8256004462846FFF7B4FAB4
:10133800014620B9206804F071FA002070BD3349D5
:101348002846FFF7A9FA08B90121F3E730492846EA
:10135800FFF7A2FA08B90221ECE72E492846FFF761
:101368009BFA08B90321E5E72B492846FFF794FAC9
:1013780008B90721DEE729492846FFF78DFA08B999
:101388000621D7E72649284604F0C0FAB8B36B7A95
:10139800303B092B05F1090233D833460A2610469B
:1013A80010F8011BA1F13005092D1FD9104612F8BC
:1013B800011B2029FAD03039092922D80138002107
:1013C8000A2510F8012F303A092A15D9CBB1C1B135
:1013D8004EF6602253438B4213D3B3FBF1F12068DE
:1013E800FFF792FF012384F82530A6E706FB0311D7
:1013F800A1F130030246D2E705FB0121E1E7012014
:101408009CE702209AE700BFD87C0008CD7E000840
:10141800A37E0008767E0008117E00084C7E000836
:1014280031800008014B1B68184700BFA800002046
:10143800014B1860704700BFA800002030B585B088
:1014480004460D4610220021684605F022FD0223BD
:101458008DF802302A46044B01932146684603F072
:10146800E3FD05B030BD00BF2D14000880B505466A
:101478000E461746984603F015FB034605F074FD23
:10148800DFF81890044649F800304246304639469D
:10149800A84754F8090000F0F9F900BF0800000057
:1014A800034A536823F0020353600020704700BFCB
:1014B800002004E0134B1A6842F400721A601A689C
:1014C80042F480621A601A6842F480721A600E4B05
:1014D8000E4A1A600E4A536843F0010353600D4BDD
:1014E8009A6D42F080529A659B6D0B4A82B003F068
:1014F80080530193019B936843F48043936002B047
:10150800704700BF00200240D00100200024F400F2
:10151800002004E00010024000700040014B03600E
:1015280000207047D875000808B5034B1B6898471A
:10153800BDE8084000F026B8AC00002030BFFFF737
:10154800FDBF00BF2DE9F0410B4EDFF8308006EB00
:101558000807CC1B054632460949204605F08BFC96
:10156800A01942460021083C05F093FC2C6707F1BE
:101578000800BDE8F08100BF000000000400000082
:1015880030750008074A936893F90E10002907DBA5
:10159800526993421FBF044A536843F08053536013
:1015A800704700BF9007002000ED00E070B5264BA3
:1015B80015469A6A12F0100F9A6A14BF1124102463
:1015C80012F0080F9A6A18BF1224920706460AD525
:1015D800586B9A6A140634D519B19A6A22F08002B7
:1015E8009A62132401E06FF01500174B9A6A12F003
:1015F800010F9A6A18BF142412F0200F9A6A18BFB4
:101608001524D20602D49B6A9B070AD50E4B5B6849
:10161800190506D5314600F011FA10B180F3098892
:101628000224094B9A6A920642BF5A6A22F400526F
:101638005A629A6A42F0FF029A6200232B7020468F
:1016480070BD6FF01500CCE700ED00E0134B9A6A0F
:1016580012F0007F9A6A14BF1E201D2012F0807FAE
:101668009A6A18BF1F2012F4002F9A6A18BF212007
:1016780012F4802F9A6A18BF222012F4003F9A6A47
:1016880018BF232012F4803F9A6A6FEA02426FEA79
:1016980012429A6218BF2420704700BF00ED00E094
:1016A80010B5194B0246986A9C6A10F4805F14BF03
:1016B8001720162014F4006F9C6A18BF1820A40580
:1016C80009D5986B986A000404D51AB19A6A22F46D
:1016D80000429A6219200C4B9A6A12F4806F9A6A37
:1016E80018BF1A20D2050CD49B6A13F4005F18BFE8
:1016F8001C20054A936A43F47F43936200230B70CE
:1017080010BD1B20F5E700BF00ED00E0F0B5484B29
:101718005B688BB00446C3F30803002585F3118882
:10172800BFF36F8F02F07F40B0F17F4F11D102F00D
:101738000C0008280DD010074CBF0C4601250022CC
:10174800033B8DF80720032B05D8DFE803F024635B
:1017580067602C46F3E700239DF80720CAB902AE5C
:1017680004F1200720686168324603C20834BC428D
:101778001646F7D1099A002D54D0C2F3080121B9B1
:101788006FEA52226FEA4222099202A9184604F02F
:1017980020FA0BB0F0BD264BDA6A9107DBD4DA6A7F
:1017A800002AD8DBDA6A5200D5D55A69A16942F411
:1017B80080725A61BFF34F8FBFF36F8F5A6931F848
:1017C800021C22F480725A61BFF34F8FBFF36F8FF0
:1017D8004DF6027291420AD09A6AD2B24AB10DF11C
:1017E800070201212046FFF7E1FE0346B4E723681C
:1017F800B2E79A6A12F47F4F05D00DF10701012074
:10180800FFF74EFFF1E79B6AB3F5803FA3D3FFF7DD
:101818001DFFEAE70DF107020021E3E70DF10701DB
:101828000020EDE722F4FF7222F00102ACE700BFCE
:1018380000ED00E0044B5A6942F010025A615A69FF
:1018480022F008025A61704700ED00E0EFF30880CB
:10185800EFF3098101B57246FFF758FF01BD00BFDC
:10186800102080F3118808484FF40461401880F371
:101878000988EFF314800221084380F31488BFF32A
:101888006F8F00F09BF8000080120020084B9B68C7
:1018980083420BD1EFF3058343B1064B5A6842F0FC
:1018A80080525A605A6A22F400425A6205F07ABAA3
:1018B8009007002000ED00E0094A93686FF00A01E4
:1018C8009967084958674B6843F080534B60002379
:1018D80083F31188BFF36F8F9368986F704700BFC9
:1018E8009007002000ED00E015498A684FF03000AD
:1018F8001044EFF3098C80E8F01F102080F3128861
:10190800BFF36F8F0F4F4FF000664A698A603E60E1
:101918004FF07004141920680B4C2060506F00239E
:10192800536780F3118804B5104600F0EFF8BDE85E
:10193800044002F1300090E8F01F8CF309887047EA
:101948009007002004ED00E0040600201EF0040FBC
:101958000CBFEFF30880EFF30980816911F8021CCE
:101968000229FFD001B5724604F039F901BD00BF64
:1019780040B2002807DB044A4109012300F01F0098
:10198800834042F82130704700E100E040B200286F
:10199800A8BF00F1604001F10101B8BF064B4FEA52
:1019A8000111ACBF00F5614000F00F00C9B2B4BF2F
:1019B800195480F80013704714ED00E00F4A08B579
:1019C8000F4B22F07F029A60BFF34F8FBFF36F8FE8
:1019D800D3F8882022F47002C3F88820EFF3148328
:1019E80023F0040383F31488BFF36F8F02F0FCFA2B
:1019F80003F0E4F800F060F802F03AFB0000000899
:101A080000ED00E042F8203C009B42F81C3C0A49EB
:101A1800019B42F8183C029B42F8143C21F001015A
:101A28004FF0807342F8043C42F8081C0023203A27
:101A380002654367704700BF75140008094A0346EA
:101A4800906870B113F1160F006E05D0A0F1400236
:101A58009A4205D8834203D2814228BF00207047AA
:101A6800002070479007002008B515460B4A0C4B1C
:101A78009060026F1A600E4600F048F82C4686F314
:101A880009884FF00000074B984720464FF00001A7
:101A98004FF000024FF00003034C2047900700204E
:101AA80004060020F75B000875140008014B10229B
:101AB8001A61704700ED00E0044800231021C218A5
:101AC8000133662B82F80013F9D1704700E100E07A
:101AD80008B5EFF30583064A103B02EBC30152F841
:101AE800330049688847BDE80840FFF74BBD00BF91
:101AF800F0710008024B034A0348012100F076B850
:101B08000000022000000020D8750008026E054B76
:101B1800403A1A60044A4021C3E9011218460121DB
:101B280000F06EB80806002000000B15084AC2F83D
:101B380098000B6823F01F03034343F01003C2F817
:101B48009C308B6843F00103C2F8A030704700BF97
:101B580000ED00E02DE9F043DFF8608085B00E4627
:101B68001F4604464FF00009B14523DA6068D8B132
:101B78003FB1411E08421BD11F2819D923681942B9
:101B880016D12368019304F046F8A368034303932E
:101B9800D8F89050C5F30725D0B2013DA84207D820
:101BA80001A9FFF7C3FF421C09F101090C34DBE767
:101BB8006FF01502104605B0BDE8F08300ED00E0B7
:101BC800044B0522C3F89420BFF34F8FBFF36F8FE8
:101BD800704700BF00ED00E0BFF35F8F024B0022AB
:101BE800C3F89420704700BF00ED00E010B5034C27
:101BF80001232278FFF7AEFF207010BDE307002015
:101C080008B50B4A00231278FFF7A4FF10F1160F4E
:101C180007D0084A0021D2F89030C3F3072398422E
:101C280000DB08BDC2F89800C2F8A0100130F2E746
:101C3800E307002000ED00E02DE9F043534B544C3E
:101C4800D3F890302568C3F307239D4285B000F28E
:101C58009A80FFF7C1FF00200C2685421AD14D4C0F
:101C68004D4F25706846FFF759FCDFF82081DFF8F3
:101C78002C9106460025AE4213D123784349002013
:101C8800D1F89020C2F30722934276DBFFF798FF42
:101C9800002042E0616806FB0011FFF747FF0130B2
:101CA800DBE7009800EB05114FEA051CCB683B40C9
:101CB800B3F5000F48D00AD8B3F5001F30D0B3F5FC
:101CC800800F36D0B3F5801F10D00135D3E7B3F1BC
:101CD800807F42D0B3F1007FF7D150F80C3088688C
:101CE8004A6803F098FF40F4802009E050F80C306F
:101CF80088684A6803F08FFF40F0885040F430202D
:101D0800CDE901230390D8F890302078C3F3072356
:101D1800013B98422AD96FF0150005B0BDE8F08361
:101D280050F80C3088684A6803F075FF40EA0900EB
:101D3800E6E750F80C3088684A6803F06CFF40F01A
:101D4800E06040F40030DBE750F80C3088684A68FF
:101D580003F061FF40F08270D2E750F80C308868D9
:101D68004A6803F058FF40F08870C9E701A9FFF7F7
:101D7800DDFE237801332370A7E7C1F89830C1F856
:101D8800A00001337CE74FF0FF30C6E700ED00E02C
:101D9800E4750008E30700200000F0FF00000811C8
:101DA80008B5024B1B689847002008BD14060020A0
:101DB800034B044A1860937843F00203937070470A
:101DC80014060020B000002008B50649064821F096
:101DD8000701C1F1005202F5003203F0ADFE002008
:101DE80008BD00BF872000201806002003484FF0D8
:101DF800FF324FF0FF3302F0C5B900BFC00000202A
:101E0800014802F037BA00BFC000002010B50446F0
:101E1800FFF7ECFF2146034803F07FFEBDE81040C2
:101E2800FFF7EEBF180600202DE9F0410F4E104FC6
:101E3800054600244FF001082A781319DBB208FA86
:101E480003F0736930EA030309D152FA84F370612D
:101E580057F833201AB107EBC303596890476A78DB
:101E68000134E3B29A42E7D2BDE8F08100040140B0
:101E780024060020044B184400230133994200F83B
:101E8800012BFADC704700BFDC01002007B50622F1
:101E980001210020FFF7EEFF002211460620FFF780
:101EA80075FD012108460722FFF7E4FF00221146CD
:101EB8000720FFF76BFD082201210220FFF7DAFF58
:101EC800002211460820FFF761FD092201210320A5
:101ED800FFF7D0FF002211460920FFF757FD0A221D
:101EE80001210420FFF7C6FF002211460A20FFF750
:101EF8004DFD052108461722FFF7BCFF00221146B9
:101F08001720FFF743FD282206210A20FFF7B2FF1A
:101F1800002211462820FFF739FD074A92E80300FE
:101F28006B4683E8030005488268194612689047A3
:101F380003B05DF804FB00BF307500084C70000862
:101F4800034660B1B0FA80F2C2F11F02D2B205496D
:101F58008856054A11680B431360FFF709BDFF2235
:101F6800F5E700BFDC01002000040140024A1368C5
:101F780023EA00031360704700040140032921D8B5
:101F8800DFE801F0020C10190F4B9A6822EA0002F0
:101F98009A60DA6822EA0002DA6070470A4B9A68A7
:101FA8000243F5E7084BDA680243DA609A6822EAE6
:101FB80000029A607047044B9A6802439A60DA6894
:101FC8001043D860704700BF0004014030B5B0B17D
:101FD800B0FA80F3C3F11F03DBB20B4850F833406B
:101FE8008C4204D100EBC3056D68954205D044B915
:101FF80040F8331000EBC3004260002030BDFF23DF
:10200800EBE76FF00F00F9E72406002060B1B0FAA3
:1020180080F3C3F11F03DBB2044A002142F83310F6
:1020280002EBC30251607047FF23F5E72406002046
:1020380000F00302043292000F23934043EA900019
:1020480000F003030233074A52F82320030C93FAE3
:10205800A3F3B3FA83F302EA104003F01F03D84056
:10206800704700BF0000014070B50B7913F02002E3
:1020780018D10C78082C15D14C78042C12D14D8825
:10208800446895B143F6FF718D4218D01E4E04F195
:10209800160030F8021F314389B28D4206D0013252
:1020A800082AF6D16FF0150008E02A4694F928109E
:1020B80039B10139C9B20129F4D8002070BD07220D
:1020C800F4E703F01F01012301EB4100092903FA9A
:1020D80001F343EA816384BF1E3843EA005324684E
:1020E80094BF43EA005343F00073D80D00F0040096
:1020F8001434C3F30453215807259D4021EA0501F0
:102108009A400A432250D8E700C0FFFF38B54FF085
:10211800A0431A68520745D52A4C1A6CD4F8943053
:10212800991CC4F894101A8094F8A53094F8A42047
:102138000133DBB29A4284F8A530254632D1002318
:1021480084F8A530636E9BB3E36FB4F888203BB185
:102158001D4804F164019847012811D0022822D0B3
:10216800B4F88830B4F884209A421CD90133A4F812
:102178008830A36F4BB9BDE83840124803F08CBDD6
:10218800D4F89830C4F89430F3E7BFF35B8F55E880
:10219800003F5A1E45E800210029F8D1BFF35B8FA4
:1021A800012BE8DC38BDA36F13B1084804F043FEE7
:1021B8004FF6FF73A4F8A6300548BDE8384002F092
:1021C800A9B800BF000000205071000808000020D6
:1021D8005000002037B543681D680446284603F0C0
:1021E8009AFD63681A68936823F0404323F03F031D
:1021F80043F0004393609368002BFCDB6368064858
:1022080099688368DB680BB101AA9847284603B030
:10221800BDE8304003F066BD4C7000082DE9F34777
:10222800476806693D680446DFF8C890484604F0E8
:1022380096FC00285BD04FF6FF73A6F8A630C6F8C8
:102248009040D4F80480D9F80830D8F808101B68F2
:10225800D8F800A04846984778B9BAF1A04F3DD0C1
:102268002549264B264A8A4508BF13469A68D8F856
:10227800101022F47C120A439A60786901AA00219E
:1022880004F039F900282BDB019B00221979186822
:1022980000F0D2FC002823DBAB6823F0204323F0B6
:1022A8003F03AB60AB6823F0104323F03F0343F0D8
:1022B8008053AB60142004F043FC7B68ABB9204624
:1022C800FFF788FFEB6823F47E63EB60B36C1BB900
:1022D80006F1400002F01EF8002003E0084BC5E7B5
:1022E800831CD9D002B0BDE8F0879847E7E76FF0C4
:1022F8001200F7E74C70000800010050000700507A
:10230800000300502DE9F04F036987B040330746BA
:102318000E4603934FF0FF324FF0FF33039802F05D
:102328002DF87B683C691D68B368C4F89430D6F80A
:102338000490C4F8A0904846FEF7B8FA002384F841
:10234800A40084F8A530B9F1000F08D16FF0150486
:10235800039801F0DFFF204607B0BDE8F08F102892
:10236800F4DC7A68106892F92AC02832634501DBE8
:1023780012D1EBE752F8041F96F810E0BEEBD14FEC
:1023880079D15FFA81F9B9F1FF0FC1F30428C1F3DC
:10239800423BC1F3024A70D17B680493D3F800E052
:1023A8003B69D3F8A0004FF000090EF1300800286F
:1023B8007CD194F8A43032685B0012B1928902FB98
:1023C8000333F2689A42C0F0DF80727C002A40F042
:1023D800B0802B6923F4806323F003032B61B37C63
:1023E80013B13846FFF7F6FE284603F07BFC1023AE
:1023F8002B606B6843F004036B6037460FCF04F122
:1024080064050FC53B682B60002727663368002BDF
:1024180000F0B6800FCB04F1780585E80F006566FB
:10242800A4F88870002800F0AB80BFF35B8F54E8F5
:10243800003F44E80072002AF9D1BFF35B8FA06F18
:10244800633047F1000164220023FEF70BFA0022F3
:10245800CDE90001002304F1080002F07BFD4FF0F4
:10246800FF324FF0FF3304F1500001F087FF00B155
:102478002066246E6CE7013378E750F8093023FAB8
:1024880008F30BEA03039A4586D003F044FC7B6803
:10249800196851F809300BFA08FB23EA0B030AFA0A
:1024A80008FA43EA0A0341F8093075E790FAA0F2FE
:1024B800B2FA82F2012303FA02FB092A4BEA826389
:1024C80002EB4201049A88BF1E3992F929208ABF7B
:1024D80043EA015343EA015343F00073012A059389
:1024E80022D12B4A5FFA89FA52F82A104FEA911C36
:1024F8000CF00C0C01F01F0158F80C2013461F2299
:102508008A4023EA0202059BC3F384638B401A4383
:1025180048F80C201F4ADEF8303052F82A2023F001
:102528000F031343CEF8303020EA0B0009F10109FC
:102538003DE7082A3FF60AAF2B6923F4806323F0AE
:10254800030343F001032B61134B53F82290134B01
:1025580053F822A02B6903F01C039A4505D12B6977
:1025680003F4F07399453FF43AAF284603F0D3FBE0
:102578002B6949EA0A0923F4FE7343EA09032DE7A4
:10258800204603F089FB6AE76FF00B04E0E600BF22
:10259800F4760008B4760008907600086C76000897
:1025A80010B5214B18680B68082B144616D00B2B56
:1025B8000BD89BB1013B0A2B10D8DFE803F01716A4
:1025C8002E163331160F1A252500582B0ED008D891
:1025D8004C2B0BD0502B09D0482B07D06FF085001F
:1025E80006E05C2B02D0602BF7E70020206000207B
:1025F80010BD00F0C7F80623B0FBF3F0552358438D
:102608000723B0FBF3F0F1E700F0BCF80623B0FBBA
:10261800F3F0552358434008E8E74FF4FA40E5E75C
:102628000248E3E70248E1E7D001002000366E01E6
:10263800006CDC02F8B54F4F4F4C00F0C1F838463B
:1026480003F011FC01F094F9A3684C4AC3F3031397
:102658001578D35C05F01F0503F01F0320FA03F675
:1026680047FA05F5AE4202D2284601F0BFFB2368BF
:1026780023F480232360236843F480332360236892
:102688009A03FCD5D4F8943043F00103C4F894308D
:10269800D4F894309B07FBD5D4F8983043F0010365
:1026A800C4F89830D4F898309807FBD5A36803F09D
:1026B8000C030C2B18D12368590506D4236843F45E
:1026C8008073236023685A05FCD5A36823F00303AD
:1026D80043F00103A360A36803F00C03042BFAD1B1
:1026E800A36823F0F003A360236823F080732360BA
:1026F800E36823F0605323F4003343F06053E3604E
:10270800E36843F48033E360E36823F4C003E360E1
:10271800E36843F48013E36000F038F8236843F07B
:102728008073236023689B01FCD5A36823F0F00322
:1027380043F08003A360A36843F00303A360A36886
:1027480003F00C030C2BFAD1A368AE4223F0F0037C
:10275800A36002D3284601F049FB094B1F60A36818
:1027680023F4E063A360A36823F46053A36000200C
:10277800F8BD00BF80FE210A0010024085810008D4
:10278800D00100200048704700366E010A4AD2F88E
:10279800803023F48073C2F8803002F5D032074BC2
:1027A800D1680B4043F4AA4343F05303D360D36882
:1027B80043F08073D3607047007000400C80FFF9CD
:1027C800064B9A6D42F080529A659B6D82B003F079
:1027D80080530193019B02B0704700BF0010024074
:1027E80008B5074804F0BBF938B10648FFF7E0FA26
:1027F8000448FEF71DFE002008BD6FF01200FBE73D
:1028080014710008112800080A2838B5074D044635
:1028180004D1AB680D215B6828469847AB6803482C
:102828005B68E1B29847204638BD00BF14710008C4
:102838002DE9F843D0F80480D0F81090D8F80800B3
:1028480017460D461E4603F0FBF9B7F5001F044670
:1028580016D12846D8F80840FFF7EAFB84420CD185
:10286800294603F0EDF90446FFF780FB2046FFF701
:10287800CDFB00212046FFF781FB0020BDE8F8834F
:10288800B7F5800F20D0B6F1806F19D0B6F1C06FC0
:1028980018D0B6F1007F1AD1022610494A462046C0
:1028A800FFF794FBB0B9D8F80810284603F0CBF925
:1028B80020463146FFF762FB2046FFF741FBDCE785
:1028C8000126EAE70326E8E76FF08500D6E76FF010
:1028D8001500D3E76FF00F00D0E700BF29610008AB
:1028E80038B5036904465860084D284604F037F99E
:1028F80040B16168AB680C311B682846984700EA0C
:10290800E07038BD6FF01200FBE700BF4C700008A4
:1029180030B504694068C0684568ED0107D543686B
:102928004A6823F47F0343EA0243436030BD246AC4
:102938001D4D14F0010F44682AD044F4006444602B
:1029480044682C40234343600B7A9C0728D43AB34D
:1029580013785B0724D4436843F08073436043686B
:10296800039A23F000734360436823F4806313439E
:10297800436043684A6823F47F0343EA02434360A1
:10298800036843F001030360436843F40053CCE752
:1029980024F40064446044682C4044EA4303D2E7CA
:1029A800436823F08073D9E700FCFFFF2DE9F74F58
:1029B800446803690193E568E369DFF80881DFF893
:1029C8000891DFF808A1DFF808B100930020009B08
:1029D8008342019B1A6A33D1C2F34202012A61D0B1
:1029E800022A6BD140F2145E4FF4167C4FF4FA774A
:1029F80040F27716DFF8DC800220421EB1FBF2F2CB
:102A0800B8FBF2F2BCFBF2F4013CFF2C53D8BEFB3E
:102A1800F2F3013BFF2B4ED8B6FBF2F9B9F10F0FD9
:102A280049D8B7FBF2F2013A0F2A44D843EA0943DE
:102A3800023843EA007343EA025343EA04231DE0E1
:102A48000C23D4F818C0DFF890E003FB00F70CEB78
:102A58000706736873451DD015D853451CD05B45D0
:102A680014BF002301239B00C2F34202B2EB530FB1
:102A780016D15CF807308B4212D1B3682B61002065
:102A880003B0BDE8F08F434508D04B450CBF0A237F
:102A98000023E9E70623E7E70223E5E70823E3E75E
:102AA800013094E741F25C2E4FF47A6C40F2E24731
:102AB8004FF4FA769EE7013011289ED16FF0150089
:102AC800DEE700BF40E13300404B4C00A086010028
:102AD800801A060000CA9A3B40420F00F7B5044628
:102AE800436806691948DD680F4659688368DB68DA
:102AF8000022019223B96FF00404204603B0F0BD10
:102B080001AA98470028F6DB376206F110074FF054
:102B1800FF324FF0FF33384601F030FC2B6823F0CA
:102B280001032B60204696F84E1003F0D9FC01995A
:102B3800FFF73CFF96F84D3004461BB12B6843F075
:102B480001032B60384601F0E5FBD6E74C7000081E
:102B58002DE9F7430446D0F8048005694FF0FF32A9
:102B68000021284604F04EF80026D8F80030204608
:102B7800984785F84C6085F84E600122114605F1AA
:102B8800100004F03FF8274F384603F0E8FF00280C
:102B980045D0D4F8049001AAD9F81400314603F0BE
:102BA800AAFCB0420DDB019B32461979186800F087
:102BB80043F8B04205DBBB68D9F804101B683846F7
:102BC8009847D8F81010184B994222D015D8174BAF
:102BD800994220D0164BCB1A59425941890041F0ED
:102BE80010012046FFF77AFF002803DB012385F850
:102BF8004C30002003B0BDE8F0830E4B99420CD056
:102C080003F5C31303F5206399420CBF0A21002181
:102C1800E5E70621E3E70221E1E70821DFE76FF0B6
:102C28001200E7E74C70000840420F00A086010040
:102C3800801A060040E133002DE9F0471E4F044694
:102C480000EBC1060025B44201D1002014E0206841
:102C5800C30600F01F0911D4656845F02005C0F3CC
:102C6800481AC0F344200F2823D857F82080B8F119
:102C7800000F0DD16FF01200BDE8F087B9F1100F09
:102C880004D0B9F1110FEAD16568E8E73025E6E725
:102C9800404603F064FF0028ECD04B462A460AF071
:102CA8000F01404603F052FA002804F10804CADA7A
:102CB800E2E76FF01500DFE760780008B1F5807F84
:102CC80028D016D8102927D00FD8012926D00429B2
:102CD80008BF012318BF09231349026AC85C0223ED
:102CE8008340134023FA00F07047402908BF0323AC
:102CF800F0E7B1F5804F13D007D8B1F5806F11D048
:102D0800B1F5805F08BF0623E4E7B1F5803F08BF4F
:102D18000823DFE70423DFE70223DDE70023DBE7FF
:102D28000723D9E70523D7E7038100082DE9F047F2
:102D380001F1FF3C88B0BCF1050FBDF84070456853
:102D48001646984600F208812B68B3F1804F06D0EA
:102D5800844A934203D0B6F5803F00F20081824A4C
:102D6800042952F82C4007F4807A0CD9BAF1000FE4
:102D780040F0F2802046D1469EB91A6A22EA000243
:102D88001A62002085E0794A52F82C90BAF1000FB7
:102D980005D0B9F1000F00F0DF804846ECE7204687
:102DA800EAE7AA6862BB013E1A6A07F0010730EA3F
:102DB80002024FEA47074AD1B0F5807F00F0C2808F
:102DC80032D8102800F0C0802AD8012800F0BE8030
:102DD800042808BF012218BF09226548196A805CC7
:102DE8000222824021EA0202874017431F62614B98
:102DF800286853F82C30414698472B68DE62C0E7B4
:102E0800102A02D108F1FF38CDE722F0400120292D
:102E180002D0402A40F0A3804FEA58087608C3E75A
:102E2800402808BF0322D6E7B0F5804F00F0908015
:102E380008D8B0F5806F00F08D80B0F5805F08BFCE
:102E48000622C8E7B0F5803F08BF0822C3E76846F6
:102E580003F06CFE602300930123BAF1000F1BD02E
:102E6800029305972B681B6A34EA03030CBF0123FE
:102E78000023019328682146FFF720FF0490CDF82E
:102E88000C8028686A46214600F004FEB8B16FF04D
:102E9800040008B0BDE8F08701930497B9F1000F6A
:102EA800EDD02B681B6A39EA03030CBF012300230A
:102EB800029328684946FFF701FF0590DFE72A6873
:102EC800136843F080031360B4F5807F2A6831D01B
:102ED8001FD8102C30D018D8012C04D0042C08BFCF
:102EE800012018BF0920244B195C244B1832185CA8
:102EF800545808238340234353502B68DE622A68C2
:102F0800536943F0010353613BE7402C08BF03209A
:102F1800E7E7B4F5804F11D007D8B4F5806F0FD02C
:102F2800B4F5805F08BF0620DBE7B4F5803F08BF33
:102F38000820D6E70420D6E70220D4E70720D2E706
:102F48000520D0E7042248E7022246E7002244E7AA
:102F5800072242E7052240E76FF0150099E76FF076
:102F6800850096E7000C00403079000820790008B9
:102F78000381000808790008178100080D810008FE
:102F88002DE9F04186B006694468374D284603F0BC
:102F9800E6FD002862D0D5F8088004F10C07D8F8BF
:102FA8000030394628469847002804DBD8F80C300A
:102FB80023B96FF0570006B0BDE8F08101AA394681
:102FC800284698470028F6DB019B3360D6E90101C3
:102FD8008368DB6803B19847606901AA002103F0A0
:102FE8008AFA0028E7DB019B002219791868FFF7A5
:102FF80023FE0028DFDB01A803F08FFD6368ADF82E
:103008000430A36802930023CDE9033301A92068A3
:1030180000F0E4FC28BB2368144A934213D002F55D
:10302800006293420FD002F5406293420BD002F542
:103038008062934207D002F58062934203D002F582
:103048000062934203D15A6C42F400425A642268E7
:10305800136843F0010313600020ACE76FF012001F
:10306800A9E76FF00400A6E74C700008002C0140A7
:1030780030B50E29036911D11968114C0B130A25B3
:10308800C1F30B0193FBF5F005FB10336143634378
:1030980003EB1133C2E90003002030BD0D290CD128
:1030A800B3F90430642493FBF4F104FB113308B240
:1030B80042F2107113FB01F3ECE76FF08500ECE7C7
:1030C800A08601000C292DE9F84F16466BD14468FB
:1030D800D0F810B0A368D4F80490B3F800A023691E
:1030E800E7681D88DBF800309B681889FDF726F92A
:1030F80080462068FDF722F901464046FDF72AFA86
:103108008046BBF93A00FDF71DF901464046FDF738
:103118006DF91FFA8AFA80462AFA09F0FDF70EF9C6
:1031280001464046FDF758F880466069C01BFDF728
:1031380009F9ADB2A5EB0A05044625FA09F0FDF731
:10314800FDF801462046FDF705FA01464046FDF721
:103158004DF904463846FDF7F5F801462046FDF7D7
:103168003DF80446FDF708FB0746FDF7EBF8014676
:103178002046FDF731F80F49FDF738F94FF04F4178
:103188000546FDF7D1FA88B94FF09E412846FDF76C
:10319800E9FA044650B937602846FDF7EDFA706041
:1031A8002046BDE8F88F6FF08500FAE76FF0210040
:1031B800F7E700BF0024744970B53C29066901D0BF
:1031C8000C2948D106F124054FF0FF324FF0FF33A8
:1031D800284600F0D7FF314651F8040B83681B6876
:1031E8009847044670BBF368B3F1A04F2FD01B4A31
:1031F80093422CD01A4B99689A6801F0E07122F03A
:10320800E0720A4342F400029A60782003F0B9FDA4
:10321800314651F8100B83685B689847044608B933
:10322800338F7387F368B3F1A04F12D00B4A9342E0
:103238000FD00B4B9A68996802F0A07221F0E071E8
:103248000A439A60284601F015F8204670BD054BE0
:10325800D1E7044BEEE76FF08504F6E70001005074
:10326800000700500003005070B53C29066901D0E2
:103278001F2945D106F124054FF0FF324FF0FF33E7
:10328800284600F07FFF314651F8040B83681B681D
:103298009847044658BBF368B3F1A04F2CD01A4A9C
:1032A800934229D0194B9A68996802F0E07221F08C
:1032B800E0710A4342F0807231469A6051F8100B6F
:1032C80083685B689847044608B9338F7387F36847
:1032D800B3F1A04F12D00C4A93420FD00B4B9A680F
:1032E800996802F4400221F0E0710A439A60284686
:1032F80000F0C0FF204670BD054BD4E7044BEEE755
:103308006FF08504F6E700BF000100500007005089
:103318000003005070B53C29066901D01F2948D127
:1033280006F124054FF0FF324FF0FF33284600F036
:1033380029FF314651F8040B83681B6898470446F7
:1033480070BBF368B3F1A04F2FD01B4A93422CD027
:103358001A4B9A68996802F0E07221F0E0710A430A
:1033680042F480029A600C2003F00BFD314651F8BC
:10337800100B83685B689847044608B9338F7387D6
:10338800F368B3F1A04F12D00B4A93420FD00B4B06
:103398009A68996802F0C07221F0E0710A439A6055
:1033A800284600F067FF204670BD054BD1E7044B67
:1033B800EEE76FF08504F6E70001005000070050C3
:1033C80000030050012912D0022907D089B90068EA
:1033D800094BC01A18BF0120000370470068064B4C
:1033E800984214BF4FF440504FF4005070470020EB
:1033F80070474FF4005070470080004070B51D467C
:10340800094B002633F812203346FDF72BFA090240
:1034180041EA10616C08000220182A46334641F13F
:103428000001FDF71FFA70BD0C7B0008F7B50269B3
:10343800436810681D680C46D9688368DB68B3B1B7
:1034480001AA9847002812DB214B9D4232D1019FE7
:10345800204E00252346AAB238460021FFF7CEFFAA
:10346800A0F54070B04204D901350C2DF2D103B05B
:10347800F0BD174EF36A23F00F032B43F362002CC1
:10348800F5D0154B33F81520002319463846FDF7BB
:10349800E9F9090241EA106163080002C0182246EE
:1034A8004FF0000341F10001FDF7DCF9C0F3130010
:1034B800F060DCE72B6823F400432B60019B002CB1
:1034C800D5D003EB5403B3FBF4F39BB2EB60CEE728
:1034D80000800040FFFC0F000C7B00082DE9F8433A
:1034E80006460A794068336904685F68012A0D4610
:1034F80058D0931ED3F1000848EB03084FEA8828F8
:103508006979FFF75FFF95F80690B9F1020F034656
:103518004BD0B9F1040F4CD0002A54D0033A012AF9
:1035280049D94FF48050B3F5805F4ED0B3F5405F72
:103538004DD0002B0CBF0123032399423BD14146B8
:1035480003F09AF9814536D1EB79C3B1012B40D10B
:10355800214B9C4213D0A3F574439C420FD003F532
:1035680080639C420BD003F580639C4207D003F52F
:1035780080639C4203D003F540539C421BD12368CF
:1035880023F0010323602946304603F02BFA236811
:1035980043F00103236095E8030087E80300002057
:1035A800BDE8F8834FF4C068AAE73AB94FF08050F5
:1035B800B9E7002AB5D06FF08500F1E7033A012A90
:1035C800F9D90020AFE71046ADE70023B5E702239D
:1035D800B3E7032BBCD0EEE700380140F7B5056927
:1035E800446806465048286003F0B9FA002800F0FD
:1035F80094802868E16883681B6898470028C0F2AF
:103608008E80206A01AA002102F075FF0028C0F20E
:103618008680019B002219791868FFF70DFB0028A6
:103628007DDB756833692C685F68236823F00103C4
:103638002360686803F093FA00286ED0D5E9010189
:103648008368DB6803B1984754E8003F43F00C03F4
:1036580044E80032002AF7D13946304603F0C2F96F
:103668002B7D1BB1A36843F00803A3606B7D1BB1DE
:10367800636843F400436360AB7D1BB1636843F444
:1036880080336360EB7D1BB1636843F40033636090
:103698002B7E83B3254B9C4213D0A3F574439C42E5
:1036A8000FD003F580639C420BD003F580639C42E6
:1036B80007D003F580639C4203D003F540539C4236
:1036C8002FD173681A68936843F480439360236822
:1036D8006A7E23F0787343EA425323602368AA7E04
:1036E80023F4F81343EA02432360EB7E1BB1A3687B
:1036F80043F40043A3602B7F1BB1236843F00053BE
:103708002360236843F001032360E3699A02FCD530
:10371800E3695B02FCD5002001E06FF0120003B002
:10372800F0BD6FF01500FAE74C7000080038014052
:1037380010B54FF0E0230F499C691A6908689B6926
:103748000D4902F4803234B993B903464AB90A687C
:103758001044C01A10BD002B08BF03460AB9A34283
:10376800F5D90A6802440A604FF0E0221269EEE7D0
:103778000446F3E78C070020880700200A4B102234
:1037880083F82320094B44F268221A60084B002072
:1037980018604FF0E02344F267225A6198611A6971
:1037A80042F007021A61704700ED00E08C07002024
:1037B80088070020684620F007018D4619B5FFF7F5
:1037C800B7FF114B1149D3E900420868001942F1CB
:1037D8000002C3E900020E4A00230B60D2E900414F
:1037E80044F26823001BB0FBF3F043431B1941F17B
:1037F8000001C2E9003101F0BDFAFDF7C3FEBDE8E2
:1038080019408546704700BF7003002088070020D4
:10381800680300202DE9F041DFF8DC8099B1421CF3
:103828000BD14FF0E022136923F0010313614FF02D
:103838007F43C8F80030BDE8F081D8F8006001285F
:1038480007DC00270BE0431CD8F80060F7D140F2F2
:10385800D93040F2DA339842A8BF1846471EEFF332
:103868001185102383F31288BFF36F8FFFF760FF72
:10387800224C4FF0E0239969D4E90023801843F1E2
:103888000003C4E900031E4B00221A601D4B1A688E
:10389800831A2ED444F2682C0CFB073303F58443B7
:1038A8006733B3FBFCF7131A0CFB073340F22642CD
:1038B800934238BF1346144A934228BF13464FF029
:1038C800E022C8F80030013B9069536100239361FE
:1038D8008142A1EB0003D4E9001238BF9B195B18A1
:1038E80042F10002C4E9003285F31188BFF36F8FFB
:1038F800A1E740F22643E2E78C070020700300208E
:1039080088070020680300202882FF0038B5EFF3FD
:103918001185102383F31288BFF36F8F084B1C683F
:10392800084B1B68E41AFFF703FF85F31188BFF300
:103938006F8F44F268232044B0FBF3F038BD00BF1A
:10394800700300206803002038B5EFF311851023B9
:1039580083F31288BFF36F8F044B1C68FFF7E8FEF0
:1039680085F31188BFF36F8F204438BD70030020A2
:10397800174B9A6802F00C02042A23D09A6802F0C6
:103988000C02082A20D09A6802F00C020C2A1DD1D9
:10399800D968DA68D868DB6801F00301C3F34163CA
:1039A8000329C2F30312C0F3062003F101030CBF7D
:1039B800084909495B000132B1FBF2F25043B0FB00
:1039C800F3F070470448704702487047002070477A
:1039D8000010024000366E010024F4002C4A0368EF
:1039E800904245D0B0F1804F42D0A2F59432904237
:1039F8003ED002F5806290423AD002F58062904251
:103A080036D002F59432904232D002F5E05290421C
:103A18002ED0A2F58052904207D002F580629042E3
:103A280003D002F58062904227D1CA6823F440731C
:103A3800134303608B68C3620B888362144B9842FC
:103A480013D003F5006398420FD003F54063984202
:103A58000BD003F58063984207D003F58063984242
:103A680003D003F5006398420CD10B69036309E0A6
:103A78004A6823F070031343D7E703608B68C36277
:103A88000B888362436943F0010343610020704758
:103A9800002C0140B1F5805F30B500F021810AD8D3
:103AA800102900F08E80B1F5807F00F0D2800129C6
:103AB80041D0012030BDB1F5803F00F05B81B1F508
:103AC800801FF6D1036A23F480130362036A016D31
:103AD800146821F0807121F4E04141EA042411695D
:103AE80023F4001343EA0153516823F4801343EA93
:103AF80001539F49884213D001F5006188420FD0D5
:103B080001F5406188420BD001F58061884207D0F9
:103B180001F58061884203D001F50061884206D131
:103B28004168956921F4802141EA85214160046555
:103B3800D268C26442E0036A23F001030362036AA5
:103B480041688469156824F4803424F073042C4394
:103B5800156923F002032B43556823F001032B4317
:103B6800834DA84213D005F50065A8420FD005F58E
:103B78004065A8420BD005F58065A84207D005F539
:103B88008065A84203D005F50065A84212D15569A1
:103B980023F0080343EA8503956823F0040343EA06
:103BA8008503956921F480712943D56921F4007151
:103BB80041EA450141608461D268426303620020A2
:103BC80078E7036A23F010030362036A4168846993
:103BD800156824F0807424F4E64444EA0524156941
:103BE80023F0200343EA0513556823F0100343EA42
:103BF80005135F4DA84213D005F50065A8420FD004
:103C080005F54065A8420BD005F58065A84207D0A8
:103C180005F58065A84203D005F50065A84213D1D3
:103C2800556923F0800343EA8513956823F0400320
:103C380043EA8513956921F4806141EA8501D569D4
:103C480021F4006141EAC50141608461D268826360
:103C5800B4E7036A23F480730362036A4168C469A2
:103C6800156824F4803424F073042C43156923F474
:103C7800007343EA0523556823F4807343EA052358
:103C88003B4DA84213D005F50065A8420FD005F5B5
:103C98004065A8420BD005F58065A84207D005F518
:103CA8008065A84203D005F50065A84213D155697F
:103CB80023F4006343EA8523956823F4806343EA89
:103CC8008523956921F4805141EA0511D56921F4CC
:103CD800005141EA45114160C461D268C2636DE791
:103CE800036A23F480530362036A4168C469156850
:103CF80024F0807424F4E64444EA0524156923F486
:103D0800005343EA0533556823F4805343EA0533E7
:103D1800174DA84213D005F50065A8420FD005F548
:103D28004065A8420BD005F58065A84207D005F587
:103D38008065A84203D005F50065A84213D15569EE
:103D480023F4004343EA8533956823F4804343EA28
:103D58008533956921F4804141EA8511D56921F4BB
:103D6800004141EAC5114160C461D268026425E797
:103D7800002C0140036A23F480330362036A016D57
:103D8800146821F4803121F070010C43116923F487
:103D9800003343EA0143516823F4803343EA014383
:103DA8001149884213D001F5006188420FD001F50E
:103DB800406188420BD001F58061884207D001F547
:103DC8008061884203D001F50061884206D14168CC
:103DD800956921F4803141EA052141600465D26882
:103DE800816C8264EAE600BF002C0140294A13680E
:103DF800D2F8802012F4807F03F4C063264A00F1D1
:103E0800FF3124D1914242D8B3F5007F2FD1234B03
:103E1800984234D8224B984233D8224B984234D80F
:103E2800214B984294BF00200120204A136823F0B8
:103E38000F0303431360136803F00F0398421CBF7A
:103E4800136803F00F03C01A18BF0120704791428E
:103E58001DD8B3F5007F0AD1154B98420FD8154BE2
:103E680098420ED8144B98420FD8144BD9E7B3F5A3
:103E7800806F08D1124B984207D8124BD1E7042023
:103E8800D3E70320D1E70020CFE70220CDE70120C8
:103E9800704700BF007000407FFE210A00321B08F7
:103EA8008065140600990D0480CC060200200240AB
:103EB800000E2707804A5D050087930380C3C90168
:103EC80000366E01001BB70038B5EFF311851023DB
:103ED80083F31288BFF36F8F064B9C6802F052FE83
:103EE80085F31188BFF36F8F2046BDE83840FDF792
:103EF800CDBC00BF9007002038B5094B53F82040CF
:103F0800013053F82050A54200D838BD636823B16A
:103F1800204602F03AFE0834F5E723689847FAE7A6
:103F2800F47A000870B52B4B2B4C2C4D012286B02F
:103F380003201A70FFF7E0FF01F070F802F041FE6D
:103F48000420FFF7D9FF2646AE4204F1300410D30F
:103F580000F0B0FC204C224EAC4226D300F0BEFC50
:103F6800FDF766F81F4A137B23F00103137306B0AD
:103F780070BD54F80C3C059354F8103C049354F865
:103F8800143C039354F8183C029354F81C3C0193D6
:103F980054F8203C009354E90A2354E90C0100F03A
:103FA80013FA54F8303C5E65CDE7D4E90A23B3F13F
:103FB800FF3F08BFB2F1FF3F05D052EA0301206876
:103FC80003D102F02EFE3034C6E73146183000F037
:103FD80057FEF8E7E4070020207500082075000860
:103FE800576D0008F803002008B50348034A00216C
:103FF800121A02F0E2FD08BD30020020EC07002092
:1040080070B5002386B00122CDE90423134E144D68
:1040180001930F22CDE902321249142303FB005504
:1040280006EBC01604464FF4C07000FB04110E4B9B
:1040380000954FF4A072304600F0C6F9737B0B4A26
:10404800EE6023F0040373734FF4046304FB03333B
:1040580013442C746B6006B070BD00BF7803002059
:1040680090070020C01A0020D96B00088012002099
:10407800BFB50020FFF740FF2C4B83F308882C4D79
:104088002C4E6B692C4F43F400736B610024F023B2
:1040980085F82230EC772C766C76AC7685F8204063
:1040A8006B6A43F4E0236B62FDF7C4FBFDF7FEFC8B
:1040B8004FF0FF33AB62EB62FDF7BEFDFDF71AFD73
:1040C8001E4BB36040F201129A81C3E91844DC66C2
:1040D80002F044FDFDF7EEF90120FFF70DFF022085
:1040E800174DFFF709FF00F02DFC164B756105937E
:1040F800012315490094CDE903434FF480623B4600
:10410800CDE90144284600F05FF96A7B064622F0B3
:10411800040228466A7302F0C0FD2046FFF770FFCC
:104128003A4631462846FDF79FFC00BFC01A0020DA
:1041380000ED00E0900700202D3F000878040020E3
:10414800F803002095810008401C002038B5054C74
:10415800256804EB850405B938BD54F80439013DD8
:104168009847F8E72075000838B5044C044DAC4270
:1041780000D338BD54F8043B9847F8E72C7500087D
:10418800307500082DE9F341044617461E46EFF343
:104198001188102383F31288BFF36F8FC368334AE3
:1041A8007BB180689168884219D057EA060318D114
:1041B80088F31188BFF36F8F6FF00F0002B0BDE86E
:1041C800F081916891F90E1021610133E3609368E1
:1041D800A36088F31188BFF36F8F0020EEE7216991
:1041E800F2E791F90E1090F90E309942A8BF1946DE
:1041F8006FF07E029142B8BF11468B422DDD02F06E
:10420800F2FC0546CDE9007619482246414600F001
:1042180093FA0028E1D0EFF31186102383F3128874
:10422800BFF36F8FA068D0B1236821699C420AD080
:104238004BB193F90E309942A8BF19466FF07E032F
:104248009942B8BF194602F0CEFC40B10848314641
:1042580000F0ECFA6FF00A00B0E70025D2E7002D75
:10426800F4D186F31188BFF36F8FF3E7900700202E
:10427800E5070020F8B583680546002B3FD0234AA0
:10428800926893423ED1C368012B03D9013BC360B6
:104298000020F8BDEFF31187102383F31288BFF3D2
:1042A8006F8F0169806802F09EFC2C68A54207D1D7
:1042B8000023C5E9023387F31188BFF36F8FE7E75F
:1042C800002CF5D0D4E9003213605A60637B0026D5
:1042D80023F002036373C4E90066A66004F11800C2
:1042E80002F082FDAC6094F90E302B612046A6677F
:1042F80002F0D3FC0648394600F098FAC8E76FF098
:104308001500C6E74FF0FF30C3E700BF9007002055
:10431800E507002070B5EFF31186102383F31288A8
:10432800BFF36F8F0468A0421AD0CCB1D4E9003231
:1043380013605A60637B002523F002036373C4E9AA
:104348000055A56004F1180002F04EFD2046A5674F
:1043580002F0A3FC31460848BDE8704000F066BA98
:10436800D0E902329A4218BF0133836086F311887C
:10437800BFF36F8F70BD00BFE607002013B5EFF3E2
:104388001181102484F31288BFF36F8F846844B1BD
:10439800013C846081F31188BFF36F8F002002B065
:1043A80010BD52EA030406D181F31188BFF36F8F61
:1043B8006FF00F00F3E7CDE900230246014800F053
:1043C800BBF9ECE7E60700202DE9F043073285B09A
:1043D80022F007020E461F461099017300F1580398
:1043E8007F32C0E916330446002322F03F0204213D
:1043F800836041733F2A0F98A073C4E90633E373BF
:1044080006F14009A2F1400805D883F31188BFF3EB
:104418006F8F084602DFB51829462046FDF792F847
:1044280007300E9B20F00700A066C4E91898029395
:104438000D9B01932D1A0C9B00932A463B4631464F
:104448002046FDF7DFFA00236365044B9B6803B140
:10445800DB6EE366284605B0BDE8F08390070020D0
:10446800F0B587B000250595109D04950F9D03951F
:104478000E9D0295DDE912760D9D01950C9D009526
:104488000446FFF7A1FFB6F1FF3F08BFB7F1FF3FB2
:1044980005D056EA070305D1204600F0D9F9204691
:1044A80007B0F0BD03493A46334604F1180000F05E
:1044B800E7FBF4E7576D000838B590F90D20437B0A
:1044C800002A014604DA03F07F03437302F0ABFBD2
:1044D8000D4D2A46AB6852F8184F944200D004B9E3
:1044E800EC688B4207D05A7BD20604D1DA897F2A3E
:1044F80001D9A2692AB1A34202D0204600F006FBE6
:1045080023466B6138BD00BF9007002070B590F955
:104518000D30427B002B36DBD10634D18369002B6A
:1045280031D11C4C62F07F024273224652F8181FA8
:10453800914218BF0B46E16923B9C0E90021086020
:10454800E0610CE090F90E5093F90E60B5421BD073
:10455800AE4219DD5968C0E9003108605860A569A4
:10456800954200D005B9E568A3685A7BD20604D104
:10457800DA897F2A01D9AA6952B1AB4202D028460A
:1045880000F0C4FA656170BD9942D6D01B68D3E7C4
:104598006361F8E7900700202DE9F843002A427B81
:1045A8000CBF4FF010094FF0080919EA020F044632
:1045B8000F4621D149EA0203D2092AD14373B9F13E
:1045C800080F2CD04FF00008344E334653F8185FCC
:1045D8009D4200D005B9F568B368AB4202D02846C1
:1045E80000F094FAB9F1100F756144D1BFF35F8FF1
:1045F800637B23F060036373284B9B68A34247D116
:10460800EFF30583002B43D13846BDE8F843FDF7A7
:1046180053B903F07F03437302F005FBCFE7A368A8
:1046280013B1204602F007FB04F1180002F0DCFB8E
:10463800A56D04F15806AE4211D04FF0000875B1CF
:10464800284602F0F8FA05F1180002F0CDFBC5F88B
:1046580078802846FFF75AFFA56DAE42EFD10F4B81
:104668009B689C42AED1EFF30588B8F1000818BFEB
:104678004FF00108A8E7B8F1000FB7D0084BB360B6
:1046880040F201129A810022C3E91822DA66ADE7E6
:1046980087F31188BFF36F8FBDE8F8839007002078
:1046A8007804002070B590F90D20437B002A01465C
:1046B80004DA03F07F03437302F0B5FA4B7B1D4C19
:1046C80063F07F0322464B7352F8183FE069934228
:1046D80008BF002323B9C1E900200160E1610CE0B3
:1046E80091F90E5093F90E60B5421ED0AE421CDD12
:1046F8005868C1E9003001605960A569A36895420E
:1047080000D005B9E5688B4207D05A7BD20604D1A0
:10471800DA897F2A01D9AA692AB1AB4202D0284690
:1047280000F0F4F92B46636170BD9842D3D01B6842
:10473800D0E700BF90070020F8B5124B0C46114691
:10474800114A98681060DDE90676EFF311821022AD
:1047580082F31288BFF36F8F9D68284602F075FABE
:10476800B6F1FF3F08BFB7F1FF3F06D007493A4609
:10477800334605F1180000F083FA2046BDE8F840FA
:10478800FDF79AB890070020B0070020576D000881
:10479800F8B50446EFF31187102383F31288BFF3AB
:1047A8006F8F437BDA0649B219D18569BDB903F029
:1047B8007F03437302F037FA437B1B4E817363F028
:1047C8007F034373334653F8182F9A4218BF154690
:1047D800F2695DB9C4E900321460F46111E0A173B3
:1047E800002087F31188BFF36F8FF8BD95F90E008D
:1047F800814214D0884212DD6A68C4E9005214600C
:104808006C60B4699C4200D004B9F468B3689C42F7
:1048180002D0204600F07AF974610120E1E7AA424B
:10482800D8D02D68D5E700BF9007002049B9EFF32D
:10483800058030B9054B5A699B689A4201D0FDF74B
:104848003BB881F31188BFF36F8F70479007002042
:1048580010B5EFF31184102282F31288BFF36F8F23
:10486800427B510704D484F31188BFF36F8F10BDC6
:1048780022F004024273FFF749FE21460248BDE8D0
:104888001040FFF7D3BF00BFE7070020034648B931
:10489800EFF3058232B9064A51699268914201D014
:1048A800FDF70AB883F31188BFF36F8F704700BF15
:1048B80090070020EFF31181102383F31288BFF3D0
:1048C8006F8F054B9A68D37B013BD37381F31188B3
:1048D800BFF36F8F704700BF9007002070B5EFF3EC
:1048E8001186102383F31288BFF36F8F144DAB68C2
:1048F800DA7B0132DA732A4652F8184F944200D014
:1049080004B9EC685A7BD20604D1DA897F2A01D926
:10491800A2692AB1A34202D0204600F0F7F8234644
:104928006B6186F31188BFF36F8FEFF3118010234B
:1049380083F31288BFF36F8FBDE87040FFF7A6BFFF
:1049480090070020024B03F11802C3E906227047C2
:1049580090070020F8B5EFF31186102383F312882F
:10496800BFF36F8F1D4CA068437B03F07F03437335
:1049780002F059F9A3685A7B214662F07F025A7304
:1049880051F8182FE0698A4208BF002222B9C3E90A
:1049980000100360E3610CE093F90E5092F90E7079
:1049A800BD4217D0AF4215DD5068C3E9002003604F
:1049B8005360A5698D4200D005B9E568A3689D429A
:1049C80002D0284600F0A2F865613046BDE8F840FC
:1049D800FCF772BF8242DAD01268D7E7900700204E
:1049E80050EA01032DE9F04105460E4603D1FFF7D1
:1049F800B1FF00202BE0831C71F1FF3329DB02F0AB
:104A080008FA2C18EFF31188102383F31288BFF3E8
:104A18006F8F124F124BB8681860FFF74DFDB868DA
:104A280010492A463346183000F02AF9BA68537BF1
:104A380043F0100353734046FCF73EFF02F0E9F9D8
:104A4800201A63EB0303012873F10003D1DBBDE8EF
:104A5800F0816FF00104241AD4E700BF900700200A
:104A6800B0070020576D0008B1F1FF3F08BFB0F153
:104A7800FF3F08B506D10A4B986802F01DF94FF0C0
:104A8800FF3008BDFFF7ACFFC11709304FF00A022D
:104A98004FF0000341F10001FBF7E4FEF1E700BF2E
:104AA80090070020014B9868704700BF90070020CE
:104AB800044BC01A044BC0105843044B01221A542B
:104AC800704700BFF8040020ABAAAAAAE807002094
:104AD800C3897F2B12D80A4B1B6863B1094B90F925
:104AE8000E201B689A4209DB437BDB0606D1064B86
:104AF800C31A18BF012303F0010070470023FAE727
:104B0800B8070020B40700207803002070B50E4BCA
:104B18000E4C1E7C06EB460304EBC30405462046F8
:104B280002F062F90A4B002228469A55FFF7D0FF97
:104B380048B1084B08491A68013A2046D317BDE81E
:104B4800704000F09DB870BD90070020F804002068
:104B5800E8070020B8070020B94A000838B5EFF385
:104B68001185102383F31288BFF36F8F104B114AFE
:104B78009C681068A04206D1FFF7C8FF85F311882A
:104B8800BFF36F8F38BD00211B7C11600A4AD35CCC
:104B9800002BF3D02046FFF79BFF0028EED0637B65
:104BA800DB0602D12046FFF77DFD2046E4E700BF83
:104BB80090070020B0070020E80700200748084AAF
:104BC800084908B5121A01F0FAFF0748074A0849C8
:104BD800BDE80840121A01F0F2BF00BF0000002033
:104BE8002C020020D48100080000002000000020D2
:104BF800D4810008034B1B680BB9FEF787BE002061
:104C0800704700BFBC07002030B570B10B4B5B6824
:104C180098420AD0036843B1D3E90421D0E9044596
:104C2800121941EB0501C3E90421D0E900321360F0
:104C38005A600023C0E9003330BD00BFD401002012
:104C480010B50E4B1C689C4204D1FFF7D3FF6FF0E0
:104C5800004010BDFFF7CEFF002CF8D0D4E9043295
:104C68001B1A62EBE072B3F1004F72F10001EEDA49
:104C7800002AACBF18460020EBE700BFD401002093
:104C8800B3F1FF3F08BFB2F1FF3FF8B504461D4638
:104C980016465ED08160EFF31187102383F31288E4
:104CA800BFF36F8F013275F1FF3324DA2E49D1E952
:104CB80000206FF001039B1A4FF0FF3262EB0000F7
:104CC8009E1B60EB0500012E70F1000301DA01263E
:104CD8000020C4E90460254ED6F800C07568B445C4
:104CE80008BF4FF0000CBCF1000F0DD1C4E90065FE
:104CF8002C6074601CE0FFF77DFF013645F100056C
:104D0800361845EBE070E4E7DCE90420D4E9043127
:104D1800934271EB000E1DDAD21ADCF8043060EB16
:104D28000100CCE90420C4E900C31C60CCF80440AD
:104D38003368B34209D09C4207D10D4B1C6824B993
:104D4800FFF77EFF2146FEF765FD87F31188BFF365
:104D58006F8FF8BD9B1A61EB0001AC45C4E90431C3
:104D6800C4D0DCF800C0BEE710050020D401002044
:104D7800BC0700202DE9F84FEFF3118C102383F3C3
:104D88001288BFF36F8FDFF8B0A0DFF8B0902C4F18
:104D9800C9F80000DAF800000024504508BF0020D8
:104DA8000025D7E90021D9F80030E04678B3D0E9EA
:104DB800046C4FEAE37EB3427EEB0C0B05DAF61A7D
:104DC8006CEB0E04C0E9046421E0B21841EBE67113
:104DD800C0E90445C7E90021FFF716FF88F31188E9
:104DE800BFF36F8F83689847EFF31188102383F31D
:104DF8001288BFF36F8FD9F80030DAF800009B1BD8
:104E08005045C446C9F80030CBD1D7E900219A18DB
:104E180041EBE3730024C7E90023C9F80040FFF71A
:104E28000FFF2146FEF7F6FC88F31188BFF36F8F5A
:104E3800BDE8F84FFFF792BED4010020BC07002060
:104E48001005002010B5EFF31184102383F31288A6
:104E5800BFF36F8FFFF7CEFE054A0346D2E9000184
:104E6800181841EBE37184F31188BFF36F8F10BDFD
:104E780010050020F8B50446EFF31187102383F3DB
:104E88001288BFF36F8F026822B187F31188BFF3CE
:104E98006F8FF8BDD0E90A36581C46F10001022888
:104EA80071F1000127D3012B76F10001BCBF01236A
:104EB80016465D1E46F1FF3601F0AFFF013041F1A5
:104EC8000001401946EB0101012871F1000139DBAD
:104ED80001F0A3FF013041F100016FF00102401918
:104EE80046EB0103121A4FF0FF3161EB0303184937
:104EF8002046FFF7C5FE236B01332363236A6BB19A
:104F080087F31188BFF36F8F236A20469847EFF322
:104F18001187102383F31288BFF36F8F54F8185F3B
:104F2800A542B2D0002DB0D0284601F0DEFE002305
:104F3800AB6787F31188BFF36F8F2846BDE8F84049
:104F480001F0ABBE6FF001024FF0FF33CFE700BFB7
:104F58007D4E00082DE9F04105461C4690461F4647
:104F6800EFF31186102383F31288BFF36F8FB4F128
:104F7800FF3F08BFB2F1FF3F05D186F31188BFF3A9
:104F88006F8FBDE8F081531C74F1FF3309DB012AF0
:104F980074F10003BCBF0122002412F1FF3844F170
:104FA800FF37284601F020FFDDE906010023C5E9A7
:104FB8000A012B63034942463B462846FFF760FE39
:104FC800DBE700BF7D4E000837B50446EFF31181DB
:104FD800102585F31288BFF36F8F006B98B923688B
:104FE8008BB14FF0FF334FF0FF32CDE900230A4871
:104FF80004F11802FFF7A0FBEFF3118185F3128883
:10500800BFF36F8F206B0023236381F31188BFF3F5
:105018006F8F03B030BD00BFE9070020014800F0E2
:10502800CABD00BF9A8100082DE9F04F8DB04368D2
:105038000293837815469A07804640F10D81002433
:105048000E78002E00F00A81252E0BD04B1C0393FE
:105058000134029B4146304698470028C0F2F6804A
:105068000399EDE74E788B1C252E0393F0D000278B
:10507800B946BB46BBF11F0F38D8A6F12003102B49
:105088000AD8DFE803F02A090930090909210909C2
:105098000928092D09091F00A6F13003092B33D966
:1050A8002A2E37D11BF0400F55F8043B40F0828080
:1050B800002BA7BF4BF0200B9946C3F100094BF01A
:1050C800280B01E04BF0010B039B13F8016B0393D2
:1050D800002ECFD130E04BF0020B4BF0040BF3E77E
:1050E8004BF0080BF0E74BF0100BEDE7BBF17F0F2F
:1050F80019D8A6F13003092BD2D81BF0400F03D0E2
:105108000A2101FB0737DFE70A2101FB09394BF0C8
:10511800200BD9E72E2E06D11BF0400F40F09E80C1
:105128004BF0400BD0E76C2E31D02BD8682E36D000
:105138006A2E3CD04C2E3AD0002F46F02003B8BF40
:105148002BF04002A3F16501BCBF1FFA82FB0027C8
:10515800022901D9612B2FD1073525F00705DFF882
:10516800ACA2083507271BF0080F66D00AEB070B1F
:1051780056465E4563D1A4EB0A0A06EB0A02A9EB80
:1051880007096FE1742E9FD07A2E9DD0D4E71BF0CB
:10519800800F18BF4BF4007B4BF0800B94E71BF497
:1051A800807F18BF4BF4007B4BF4807B8CE74BF47B
:1051B800207B89E71F4687E7A6F16301122900F2E1
:1051C800F080DFE811F013004F00EE00EE00EE0073
:1051D800EE004F00EE00EE00EE00EE00EE00FE00E6
:1051E800E900EE00EE001B00EE00AF0055F8043BAE
:1051F8008DF8183001270DF1180AB4E755F804ABFB
:10520800834BBAF1000F08BF9A461BF0400F14BF3A
:1052180039464FF0FF31504601F043FE0746A2E7FA
:10522800029B41462020984700280FDB013EB742E9
:10523800F6D34C44A41BB14698E74E46F7E716F858
:10524800010B029B41469847002892DA98F80230F1
:1052580043F0040388F802304FF0FF3420460DB0C5
:10526800BDE8F08F1BF0800F34D01BF4007F2CD0EA
:10527800073525F00705AA4669685AF8080B2BF088
:1052880010050029ADB237DA404261EB410145F41F
:1052980080650DF1180B0A235A4601F00EFEA0EBAB
:1052A8000B0301936B0662D5019B25F001019F4218
:1052B80089B240F3A180002E00F0998015F0100209
:1052C80040F09C80BB460D4623E0AA465AF8040BE2
:1052D800C117D4E7AA461BF4807F5AF8041B01D1F2
:1052E8000846F5E71BF4007F15BF48B208B241F342
:1052F800C01141F3C031C2E750EA0103C9D11BF024
:10530800400FC6D0002FC4D12BF0110295B2BB4676
:10531800019740F2064115EA01021CBF0BF1010B8F
:1053280000222CE02BF010021FFA82FB0A231BF04C
:10533800800C49D01BF400711DBF073525F0070507
:10534800AA46AA461ABF5AF8080B69685AF8040B05
:1053580050EA010545D12BF016051BF0400FADB200
:1053680042D0002F40D12BF0170295B2019715F0CB
:10537800100248D0019B002E42D103F1010B2907EE
:105388005AD4EB0706D5D9456FDD0199A9EB0B0374
:105398005F18CB465B4649E04BF0100B102378268C
:1053A800C5E7782B04D1C6F1780343F01003BEE7B4
:1053B800029B4146252098470028FFF647AF023454
:1053C80047E608230026B2E7AA461BF480715AF87C
:1053D800040BBDD01BF400711ABFC0B2614680B285
:1053E800B6E72BF0060295B20DF1180B54E725F03D
:1053F8001105ADB2BB468CE70D46B8E73B460D46F6
:1054080003F1020BBBE7DDF804B082E7C9810008AD
:10541800C2810008CDE904324146029B202098470A
:105428000028FFF613AF049B059A01339945F1DC78
:10543800A4EB0B01CC189B460AB3029B41463020D3
:1054480098470028FFF602AF8EB901342744019B24
:10545800391B994224DC1D465DBB019AA9EB0B0957
:10546800224455461446914435E0019F92E70234A0
:1054780041463046029B98470028E7DAE6E640F2C4
:1054880006410D42E2D015F0020F14BF2B20202058
:1054980015F4806F04F10104414618BF2D20E9E797
:1054A800029B414630209847002804F10104CEDAD7
:1054B800CCE606AB013D4146585D029B9847002863
:1054C800CADAC3E6029B414620209847002804F127
:1054D8000104FFF6BBAEA9EB0403002BF2DCBFE529
:1054E800704783685B681847C06970470023C361C9
:1054F800704738B505464C1E14F8011F01B938BD70
:105508002846FFF7EEFFF7E7704770477047704788
:10551800704710B52021044601F0A9FC204610BDB3
:1055280010B50821044601F0A2FC204610BD10B5B4
:105538000821044601F09BFC204610BD10B50C2143
:10554800044601F094FC204610BD10B50C21044619
:1055580001F08DFC204610BD03460A460068197903
:10556800012303FA01F103691B68194218BF82F08D
:10557800010212B18368DB68184783681B69FBE77F
:1055880038B5051D044601212846FFF7E5FF02202E
:1055980001F0D6FA00212846FFF7DEFFE369013360
:1055A800E36138BD00210430FFF7D6BF0021043085
:1055B800FFF7D2BF01210430FFF7CEBF0C30FFF751
:1055C800CBBF00211430FFF7C7BF01211430FFF70C
:1055D800C3BFF0B4034600681979DB880669876899
:1055E8003468DA0754BF43F4B01383F4D0130125A9
:1055F8008D4023F48012DB074CBF2C43AC4334604E
:105608003B68F0BC18470A2180FB0101FFF72CBA60
:1056180038B50325041D01212046FFF79DFF002111
:105628004FF4FA60FFF720FA00212046FFF794FFB5
:105638004FF47A700021FFF717FA013DEBD138BD1E
:1056480038B505464C1E631C02D014F8011F01B979
:1056580038BD6868FFF745FFF5E70346084649B1D6
:105668001A7C032A05D8511C197443F8220001201A
:1056780070470020704770B50124437C8C40E2B22B
:105688001C4005460E4605D1134343742A7CE3B2F9
:105698009A4200D870BD55F82300036831469B68CC
:1056A80098470134F2E713B5002301930B680446C9
:1056B8009B68084601A9984718B101992046FBF74D
:1056C80009FE02B010BD0022C0E901220160704746
:1056D80083680B448360D0E9002302FB01334360F5
:1056E80070470023C0E90133704740684FF47A736C
:1056F800B0FBF3F0704710B5C0E900128360029A5E
:10570800039BC3600023C0E90523C0E90733037482
:10571800436210BD104605291CD8DFE801F00307D5
:105728000B131915B2FA82F040097047042A0BD1FD
:105738000120704722F00400013801288CBF0020A6
:105748000120704702F0FD00431E5842584170473F
:10575800072AECE700207047007C704710B5044624
:1057680000680368DB68984720680368DB69984726
:10577800A068FFF7B6FF00216068E161FBF782FDD2
:1057880060680121FBF77EFD6068BDE81040FBF70B
:1057980099BD10B50023C361044600680368012160
:1057A8005B69984720680368BDE810409B68184704
:1057B80010B50023044643620068036801215B6951
:1057C8009847206803689B6898476068BDE8104060
:1057D800FBF778BD10B5044600680368DB68984796
:1057E80060680021BDE81040FBF74CBD10B50446C9
:1057F80000680368DB68984760680021BDE81040CE
:10580800FFF739BF10B5044600680368DB6898479E
:1058180060680121BDE81040FFF72DBF38B50A4682
:10582800017C0446FFF776FF054658B1052909D8DB
:10583800DFE801F0030A12292B2D012323742046E7
:10584800FFF7A7FF284638BD042A20D10223237476
:105858002046FFF7ADFFF5E7022A05D1032323749D
:105868002046FFF7B7FFEDE7012A10D0052A04D13B
:1058780022742046FFF7C6FFE4E70423237420467A
:10588800FFF7B4FFDEE7032ADFE7072AE6D00023A5
:1058980023742046FFF762FFD4E710B5037C012B81
:1058A80004460FD1006803681B699847E369013310
:1058B800B3F57A7FE36116D304212046BDE8104092
:1058C800FFF7ACBF022B0ED1C16829B14068FFF7C2
:1058D800EAFE08B10621F0E7226A22B1636AC833FA
:1058E8009A4201D9636210BD20680023636203688D
:1058F8001B699847A0680121FFF7EAFEA068FFF737
:10590800F4FE63699842EED30521D6E7013911F810
:10591800013F0BB90120704710F8012B9A42F6D0CD
:10592800002070470978202201F0B3BA034613B566
:1059380043F8041B044620221846002101F0A9FA66
:105948000022A28484F826200DF107018DF8072093
:10595800FFF7E8FF204602B010BD73B50A2990F89A
:105968002630044601D00D292AD1261D7BB10023FB
:1059780084F8263084F824300DF1070130468DF87C
:105988000730FFF7CFFF0425284602B070BD94F812
:1059980024202244137194F824307BB131462046E8
:1059A800FBF7BCFC0546002384F824300DF1070101
:1059B80030468DF80730FFF7B5FFE5E70325F2E736
:1059C80033B990F824301E2B04D9012380F82630EF
:1059D8000025D9E71C445A1C80F824202171F7E7D8
:1059E80000EBC100408840087047F8B50346FFF750
:1059F800F7FFB0FA80F0C0F11F0003EB800CCA007B
:105A0800DCF81060171D0C4606328DB256B901211C
:105A180001FA00F0D9680143D960CCF81040DD5391
:105A28009D52F8BDF1000431585AD85303EBC00019
:105A38009E52C5805D52F4E710B500EBC104E388BF
:105A4800994202F104010AD1012303FA02F2C36860
:105A580023EA0203C360002340F8213010BDA28866
:105A680040F8213000EBC20100EBC300CB808280FC
:105A7800F4E708B50346FFF7B3FFB0FA80F2C2F1C6
:105A88001F021846BDE80840FFF7D6BF38B50346E1
:105A9800FFF7A6FF0D46044611461846FFF7A0FF7C
:105AA80003EBC5050444600068801846FFF798FFBB
:105AB800014423F8314038BD38B50546FFF790FF5B
:105AC8000C46014405EBC1035B88DA070AD4284673
